{
	"contracts/Final_Contract.sol": {
		"ProposalContract": {
			"abi": [
				{
					"inputs": [],
					"stateMutability": "nonpayable",
					"type": "constructor"
				},
				{
					"inputs": [
						{
							"internalType": "string",
							"name": "_description",
							"type": "string"
						},
						{
							"internalType": "uint256",
							"name": "_vote_limit",
							"type": "uint256"
						}
					],
					"name": "create",
					"outputs": [],
					"stateMutability": "nonpayable",
					"type": "function"
				},
				{
					"inputs": [],
					"name": "getCurrentProposal",
					"outputs": [
						{
							"components": [
								{
									"internalType": "string",
									"name": "description",
									"type": "string"
								},
								{
									"internalType": "uint256",
									"name": "approve",
									"type": "uint256"
								},
								{
									"internalType": "uint256",
									"name": "reject",
									"type": "uint256"
								},
								{
									"internalType": "uint256",
									"name": "pass",
									"type": "uint256"
								},
								{
									"internalType": "uint256",
									"name": "vote_limit",
									"type": "uint256"
								},
								{
									"internalType": "bool",
									"name": "is_active",
									"type": "bool"
								}
							],
							"internalType": "struct ProposalContract.Proposal",
							"name": "",
							"type": "tuple"
						}
					],
					"stateMutability": "view",
					"type": "function"
				},
				{
					"inputs": [
						{
							"internalType": "uint256",
							"name": "number",
							"type": "uint256"
						}
					],
					"name": "getProposal",
					"outputs": [
						{
							"components": [
								{
									"internalType": "string",
									"name": "description",
									"type": "string"
								},
								{
									"internalType": "uint256",
									"name": "approve",
									"type": "uint256"
								},
								{
									"internalType": "uint256",
									"name": "reject",
									"type": "uint256"
								},
								{
									"internalType": "uint256",
									"name": "pass",
									"type": "uint256"
								},
								{
									"internalType": "uint256",
									"name": "vote_limit",
									"type": "uint256"
								},
								{
									"internalType": "bool",
									"name": "is_active",
									"type": "bool"
								}
							],
							"internalType": "struct ProposalContract.Proposal",
							"name": "",
							"type": "tuple"
						}
					],
					"stateMutability": "view",
					"type": "function"
				},
				{
					"inputs": [],
					"name": "getTotalVote",
					"outputs": [
						{
							"internalType": "uint256",
							"name": "",
							"type": "uint256"
						}
					],
					"stateMutability": "view",
					"type": "function"
				},
				{
					"inputs": [
						{
							"internalType": "address",
							"name": "new_owner",
							"type": "address"
						}
					],
					"name": "setOwner",
					"outputs": [],
					"stateMutability": "nonpayable",
					"type": "function"
				},
				{
					"inputs": [],
					"name": "terminateProposal",
					"outputs": [],
					"stateMutability": "nonpayable",
					"type": "function"
				},
				{
					"inputs": [
						{
							"internalType": "uint8",
							"name": "choice",
							"type": "uint8"
						}
					],
					"name": "vote",
					"outputs": [],
					"stateMutability": "nonpayable",
					"type": "function"
				}
			],
			"devdoc": {
				"kind": "dev",
				"methods": {},
				"version": 1
			},
			"evm": {
				"assembly": "    /* \"contracts/Final_Contract.sol\":58:3625  contract ProposalContract {... */\n  mstore(0x40, 0x80)\n    /* \"contracts/Final_Contract.sol\":860:909  constructor() {... */\n  callvalue\n  dup1\n  iszero\n  tag_1\n  jumpi\n  0x00\n  dup1\n  revert\ntag_1:\n  pop\n    /* \"contracts/Final_Contract.sol\":892:902  msg.sender */\n  caller\n    /* \"contracts/Final_Contract.sol\":884:889  owner */\n  0x00\n  dup1\n    /* \"contracts/Final_Contract.sol\":884:902  owner = msg.sender */\n  0x0100\n  exp\n  dup2\n  sload\n  dup2\n  0xffffffffffffffffffffffffffffffffffffffff\n  mul\n  not\n  and\n  swap1\n  dup4\n  0xffffffffffffffffffffffffffffffffffffffff\n  and\n  mul\n  or\n  swap1\n  sstore\n  pop\n    /* \"contracts/Final_Contract.sol\":58:3625  contract ProposalContract {... */\n  dataSize(sub_0)\n  dup1\n  dataOffset(sub_0)\n  0x00\n  codecopy\n  0x00\n  return\nstop\n\nsub_0: assembly {\n        /* \"contracts/Final_Contract.sol\":58:3625  contract ProposalContract {... */\n      mstore(0x40, 0x80)\n      callvalue\n      dup1\n      iszero\n      tag_1\n      jumpi\n      0x00\n      dup1\n      revert\n    tag_1:\n      pop\n      jumpi(tag_2, lt(calldatasize, 0x04))\n      shr(0xe0, calldataload(0x00))\n      dup1\n      0xb3f98adc\n      gt\n      tag_10\n      jumpi\n      dup1\n      0xb3f98adc\n      eq\n      tag_6\n      jumpi\n      dup1\n      0xc500d240\n      eq\n      tag_7\n      jumpi\n      dup1\n      0xc7f758a8\n      eq\n      tag_8\n      jumpi\n      dup1\n      0xdbddc7aa\n      eq\n      tag_9\n      jumpi\n      jump(tag_2)\n    tag_10:\n      dup1\n      0x13af4035\n      eq\n      tag_3\n      jumpi\n      dup1\n      0x41ec6870\n      eq\n      tag_4\n      jumpi\n      dup1\n      0x46f81a87\n      eq\n      tag_5\n      jumpi\n    tag_2:\n      0x00\n      dup1\n      revert\n        /* \"contracts/Final_Contract.sol\":1526:1616  function setOwner(address new_owner) external onlyOwner {... */\n    tag_3:\n      tag_11\n      0x04\n      dup1\n      calldatasize\n      sub\n      dup2\n      add\n      swap1\n      tag_12\n      swap2\n      swap1\n      tag_13\n      jump\t// in\n    tag_12:\n      tag_14\n      jump\t// in\n    tag_11:\n      stop\n        /* \"contracts/Final_Contract.sol\":3127:3245  function getCurrentProposal() external view returns(Proposal memory) {... */\n    tag_4:\n      tag_15\n      tag_16\n      jump\t// in\n    tag_15:\n      mload(0x40)\n      tag_17\n      swap2\n      swap1\n      tag_18\n      jump\t// in\n    tag_17:\n      mload(0x40)\n      dup1\n      swap2\n      sub\n      swap1\n      return\n        /* \"contracts/Final_Contract.sol\":1622:1825  function create(string calldata _description, uint256 _vote_limit) external onlyOwner {... */\n    tag_5:\n      tag_19\n      0x04\n      dup1\n      calldatasize\n      sub\n      dup2\n      add\n      swap1\n      tag_20\n      swap2\n      swap1\n      tag_21\n      jump\t// in\n    tag_20:\n      tag_22\n      jump\t// in\n    tag_19:\n      stop\n        /* \"contracts/Final_Contract.sol\":1836:2321  function vote(uint8 choice) external active hasNotVoted voteLimit(proposal_history[counter]){... */\n    tag_6:\n      tag_23\n      0x04\n      dup1\n      calldatasize\n      sub\n      dup2\n      add\n      swap1\n      tag_24\n      swap2\n      swap1\n      tag_25\n      jump\t// in\n    tag_24:\n      tag_26\n      jump\t// in\n    tag_23:\n      stop\n        /* \"contracts/Final_Contract.sol\":3444:3623  function getTotalVote() public view returns (uint256) {... */\n    tag_7:\n      tag_27\n      tag_28\n      jump\t// in\n    tag_27:\n      mload(0x40)\n      tag_29\n      swap2\n      swap1\n      tag_30\n      jump\t// in\n    tag_29:\n      mload(0x40)\n      dup1\n      swap2\n      sub\n      swap1\n      return\n        /* \"contracts/Final_Contract.sol\":3251:3375  function getProposal(uint256 number) external view returns(Proposal memory) {... */\n    tag_8:\n      tag_31\n      0x04\n      dup1\n      calldatasize\n      sub\n      dup2\n      add\n      swap1\n      tag_32\n      swap2\n      swap1\n      tag_33\n      jump\t// in\n    tag_32:\n      tag_34\n      jump\t// in\n    tag_31:\n      mload(0x40)\n      tag_35\n      swap2\n      swap1\n      tag_18\n      jump\t// in\n    tag_35:\n      mload(0x40)\n      dup1\n      swap2\n      sub\n      swap1\n      return\n        /* \"contracts/Final_Contract.sol\":2327:2442  function terminateProposal() external onlyOwner active {... */\n    tag_9:\n      tag_36\n      tag_37\n      jump\t// in\n    tag_36:\n      stop\n        /* \"contracts/Final_Contract.sol\":1526:1616  function setOwner(address new_owner) external onlyOwner {... */\n    tag_14:\n        /* \"contracts/Final_Contract.sol\":968:973  owner */\n      0x00\n      dup1\n      sload\n      swap1\n      0x0100\n      exp\n      swap1\n      div\n      0xffffffffffffffffffffffffffffffffffffffff\n      and\n        /* \"contracts/Final_Contract.sol\":954:973  msg.sender == owner */\n      0xffffffffffffffffffffffffffffffffffffffff\n      and\n        /* \"contracts/Final_Contract.sol\":954:964  msg.sender */\n      caller\n        /* \"contracts/Final_Contract.sol\":954:973  msg.sender == owner */\n      0xffffffffffffffffffffffffffffffffffffffff\n      and\n      eq\n        /* \"contracts/Final_Contract.sol\":946:974  require(msg.sender == owner) */\n      tag_39\n      jumpi\n      0x00\n      dup1\n      revert\n    tag_39:\n        /* \"contracts/Final_Contract.sol\":1600:1609  new_owner */\n      dup1\n        /* \"contracts/Final_Contract.sol\":1592:1597  owner */\n      0x00\n      dup1\n        /* \"contracts/Final_Contract.sol\":1592:1609  owner = new_owner */\n      0x0100\n      exp\n      dup2\n      sload\n      dup2\n      0xffffffffffffffffffffffffffffffffffffffff\n      mul\n      not\n      and\n      swap1\n      dup4\n      0xffffffffffffffffffffffffffffffffffffffff\n      and\n      mul\n      or\n      swap1\n      sstore\n      pop\n        /* \"contracts/Final_Contract.sol\":1526:1616  function setOwner(address new_owner) external onlyOwner {... */\n      pop\n      jump\t// out\n        /* \"contracts/Final_Contract.sol\":3127:3245  function getCurrentProposal() external view returns(Proposal memory) {... */\n    tag_16:\n        /* \"contracts/Final_Contract.sol\":3179:3194  Proposal memory */\n      tag_41\n      tag_42\n      jump\t// in\n    tag_41:\n        /* \"contracts/Final_Contract.sol\":3213:3229  proposal_history */\n      0x02\n        /* \"contracts/Final_Contract.sol\":3213:3238  proposal_history[counter] */\n      0x00\n        /* \"contracts/Final_Contract.sol\":3230:3237  counter */\n      sload(0x01)\n        /* \"contracts/Final_Contract.sol\":3213:3238  proposal_history[counter] */\n      dup2\n      mstore\n      0x20\n      add\n      swap1\n      dup2\n      mstore\n      0x20\n      add\n      0x00\n      keccak256\n        /* \"contracts/Final_Contract.sol\":3206:3238  return proposal_history[counter] */\n      mload(0x40)\n      dup1\n      0xc0\n      add\n      0x40\n      mstore\n      swap1\n      dup2\n      0x00\n      dup3\n      add\n      dup1\n      sload\n      tag_44\n      swap1\n      tag_45\n      jump\t// in\n    tag_44:\n      dup1\n      0x1f\n      add\n      0x20\n      dup1\n      swap2\n      div\n      mul\n      0x20\n      add\n      mload(0x40)\n      swap1\n      dup2\n      add\n      0x40\n      mstore\n      dup1\n      swap3\n      swap2\n      swap1\n      dup2\n      dup2\n      mstore\n      0x20\n      add\n      dup3\n      dup1\n      sload\n      tag_46\n      swap1\n      tag_45\n      jump\t// in\n    tag_46:\n      dup1\n      iszero\n      tag_47\n      jumpi\n      dup1\n      0x1f\n      lt\n      tag_48\n      jumpi\n      0x0100\n      dup1\n      dup4\n      sload\n      div\n      mul\n      dup4\n      mstore\n      swap2\n      0x20\n      add\n      swap2\n      jump(tag_47)\n    tag_48:\n      dup3\n      add\n      swap2\n      swap1\n      0x00\n      mstore\n      keccak256(0x00, 0x20)\n      swap1\n    tag_49:\n      dup2\n      sload\n      dup2\n      mstore\n      swap1\n      0x01\n      add\n      swap1\n      0x20\n      add\n      dup1\n      dup4\n      gt\n      tag_49\n      jumpi\n      dup3\n      swap1\n      sub\n      0x1f\n      and\n      dup3\n      add\n      swap2\n    tag_47:\n      pop\n      pop\n      pop\n      pop\n      pop\n      dup2\n      mstore\n      0x20\n      add\n      0x01\n      dup3\n      add\n      sload\n      dup2\n      mstore\n      0x20\n      add\n      0x02\n      dup3\n      add\n      sload\n      dup2\n      mstore\n      0x20\n      add\n      0x03\n      dup3\n      add\n      sload\n      dup2\n      mstore\n      0x20\n      add\n      0x04\n      dup3\n      add\n      sload\n      dup2\n      mstore\n      0x20\n      add\n      0x05\n      dup3\n      add\n      0x00\n      swap1\n      sload\n      swap1\n      0x0100\n      exp\n      swap1\n      div\n      0xff\n      and\n      iszero\n      iszero\n      iszero\n      iszero\n      dup2\n      mstore\n      pop\n      pop\n      swap1\n      pop\n        /* \"contracts/Final_Contract.sol\":3127:3245  function getCurrentProposal() external view returns(Proposal memory) {... */\n      swap1\n      jump\t// out\n        /* \"contracts/Final_Contract.sol\":1622:1825  function create(string calldata _description, uint256 _vote_limit) external onlyOwner {... */\n    tag_22:\n        /* \"contracts/Final_Contract.sol\":968:973  owner */\n      0x00\n      dup1\n      sload\n      swap1\n      0x0100\n      exp\n      swap1\n      div\n      0xffffffffffffffffffffffffffffffffffffffff\n      and\n        /* \"contracts/Final_Contract.sol\":954:973  msg.sender == owner */\n      0xffffffffffffffffffffffffffffffffffffffff\n      and\n        /* \"contracts/Final_Contract.sol\":954:964  msg.sender */\n      caller\n        /* \"contracts/Final_Contract.sol\":954:973  msg.sender == owner */\n      0xffffffffffffffffffffffffffffffffffffffff\n      and\n      eq\n        /* \"contracts/Final_Contract.sol\":946:974  require(msg.sender == owner) */\n      tag_51\n      jumpi\n      0x00\n      dup1\n      revert\n    tag_51:\n        /* \"contracts/Final_Contract.sol\":1729:1730  1 */\n      0x01\n        /* \"contracts/Final_Contract.sol\":1718:1725  counter */\n      dup1\n      0x00\n        /* \"contracts/Final_Contract.sol\":1718:1730  counter += 1 */\n      dup3\n      dup3\n      sload\n      tag_53\n      swap2\n      swap1\n      tag_54\n      jump\t// in\n    tag_53:\n      swap3\n      pop\n      pop\n      dup2\n      swap1\n      sstore\n      pop\n        /* \"contracts/Final_Contract.sol\":1768:1818  Proposal(_description, 0, 0, 0, _vote_limit, true) */\n      mload(0x40)\n      dup1\n      0xc0\n      add\n      0x40\n      mstore\n      dup1\n        /* \"contracts/Final_Contract.sol\":1777:1789  _description */\n      dup5\n      dup5\n        /* \"contracts/Final_Contract.sol\":1768:1818  Proposal(_description, 0, 0, 0, _vote_limit, true) */\n      dup1\n      dup1\n      0x1f\n      add\n      0x20\n      dup1\n      swap2\n      div\n      mul\n      0x20\n      add\n      mload(0x40)\n      swap1\n      dup2\n      add\n      0x40\n      mstore\n      dup1\n      swap4\n      swap3\n      swap2\n      swap1\n      dup2\n      dup2\n      mstore\n      0x20\n      add\n      dup4\n      dup4\n      dup1\n      dup3\n      dup5\n      calldatacopy\n      0x00\n      dup2\n      dup5\n      add\n      mstore\n      not(0x1f)\n      0x1f\n      dup3\n      add\n      and\n      swap1\n      pop\n      dup1\n      dup4\n      add\n      swap3\n      pop\n      pop\n      pop\n      pop\n      pop\n      pop\n      pop\n      dup2\n      mstore\n      0x20\n      add\n        /* \"contracts/Final_Contract.sol\":1791:1792  0 */\n      0x00\n        /* \"contracts/Final_Contract.sol\":1768:1818  Proposal(_description, 0, 0, 0, _vote_limit, true) */\n      dup2\n      mstore\n      0x20\n      add\n        /* \"contracts/Final_Contract.sol\":1794:1795  0 */\n      0x00\n        /* \"contracts/Final_Contract.sol\":1768:1818  Proposal(_description, 0, 0, 0, _vote_limit, true) */\n      dup2\n      mstore\n      0x20\n      add\n        /* \"contracts/Final_Contract.sol\":1797:1798  0 */\n      0x00\n        /* \"contracts/Final_Contract.sol\":1768:1818  Proposal(_description, 0, 0, 0, _vote_limit, true) */\n      dup2\n      mstore\n      0x20\n      add\n        /* \"contracts/Final_Contract.sol\":1800:1811  _vote_limit */\n      dup3\n        /* \"contracts/Final_Contract.sol\":1768:1818  Proposal(_description, 0, 0, 0, _vote_limit, true) */\n      dup2\n      mstore\n      0x20\n      add\n        /* \"contracts/Final_Contract.sol\":1813:1817  true */\n      0x01\n        /* \"contracts/Final_Contract.sol\":1768:1818  Proposal(_description, 0, 0, 0, _vote_limit, true) */\n      iszero\n      iszero\n      dup2\n      mstore\n      pop\n        /* \"contracts/Final_Contract.sol\":1740:1756  proposal_history */\n      0x02\n        /* \"contracts/Final_Contract.sol\":1740:1765  proposal_history[counter] */\n      0x00\n        /* \"contracts/Final_Contract.sol\":1757:1764  counter */\n      sload(0x01)\n        /* \"contracts/Final_Contract.sol\":1740:1765  proposal_history[counter] */\n      dup2\n      mstore\n      0x20\n      add\n      swap1\n      dup2\n      mstore\n      0x20\n      add\n      0x00\n      keccak256\n        /* \"contracts/Final_Contract.sol\":1740:1818  proposal_history[counter] = Proposal(_description, 0, 0, 0, _vote_limit, true) */\n      0x00\n      dup3\n      add\n      mload\n      dup2\n      0x00\n      add\n      swap1\n      dup2\n      tag_55\n      swap2\n      swap1\n      tag_56\n      jump\t// in\n    tag_55:\n      pop\n      0x20\n      dup3\n      add\n      mload\n      dup2\n      0x01\n      add\n      sstore\n      0x40\n      dup3\n      add\n      mload\n      dup2\n      0x02\n      add\n      sstore\n      0x60\n      dup3\n      add\n      mload\n      dup2\n      0x03\n      add\n      sstore\n      0x80\n      dup3\n      add\n      mload\n      dup2\n      0x04\n      add\n      sstore\n      0xa0\n      dup3\n      add\n      mload\n      dup2\n      0x05\n      add\n      exp(0x0100, 0x00)\n      dup2\n      sload\n      dup2\n      0xff\n      mul\n      not\n      and\n      swap1\n      dup4\n      iszero\n      iszero\n      mul\n      or\n      swap1\n      sstore\n      pop\n      swap1\n      pop\n      pop\n        /* \"contracts/Final_Contract.sol\":1622:1825  function create(string calldata _description, uint256 _vote_limit) external onlyOwner {... */\n      pop\n      pop\n      pop\n      jump\t// out\n        /* \"contracts/Final_Contract.sol\":1836:2321  function vote(uint8 choice) external active hasNotVoted voteLimit(proposal_history[counter]){... */\n    tag_26:\n        /* \"contracts/Final_Contract.sol\":1073:1077  true */\n      0x01\n        /* \"contracts/Final_Contract.sol\":1034:1077  proposal_history[counter].is_active == true */\n      iszero\n      iszero\n        /* \"contracts/Final_Contract.sol\":1034:1050  proposal_history */\n      0x02\n        /* \"contracts/Final_Contract.sol\":1034:1059  proposal_history[counter] */\n      0x00\n        /* \"contracts/Final_Contract.sol\":1051:1058  counter */\n      sload(0x01)\n        /* \"contracts/Final_Contract.sol\":1034:1059  proposal_history[counter] */\n      dup2\n      mstore\n      0x20\n      add\n      swap1\n      dup2\n      mstore\n      0x20\n      add\n      0x00\n      keccak256\n        /* \"contracts/Final_Contract.sol\":1034:1069  proposal_history[counter].is_active */\n      0x05\n      add\n      0x00\n      swap1\n      sload\n      swap1\n      0x0100\n      exp\n      swap1\n      div\n      0xff\n      and\n        /* \"contracts/Final_Contract.sol\":1034:1077  proposal_history[counter].is_active == true */\n      iszero\n      iszero\n      eq\n        /* \"contracts/Final_Contract.sol\":1026:1078  require(proposal_history[counter].is_active == true) */\n      tag_58\n      jumpi\n      0x00\n      dup1\n      revert\n    tag_58:\n        /* \"contracts/Final_Contract.sol\":1144:1152  hasVoted */\n      0x03\n        /* \"contracts/Final_Contract.sol\":1144:1164  hasVoted[msg.sender] */\n      0x00\n        /* \"contracts/Final_Contract.sol\":1153:1163  msg.sender */\n      caller\n        /* \"contracts/Final_Contract.sol\":1144:1164  hasVoted[msg.sender] */\n      0xffffffffffffffffffffffffffffffffffffffff\n      and\n      0xffffffffffffffffffffffffffffffffffffffff\n      and\n      dup2\n      mstore\n      0x20\n      add\n      swap1\n      dup2\n      mstore\n      0x20\n      add\n      0x00\n      keccak256\n      0x00\n      swap1\n      sload\n      swap1\n      0x0100\n      exp\n      swap1\n      div\n      0xff\n      and\n        /* \"contracts/Final_Contract.sol\":1143:1164  !hasVoted[msg.sender] */\n      iszero\n        /* \"contracts/Final_Contract.sol\":1135:1195  require(!hasVoted[msg.sender], \"Address has already voted.\") */\n      tag_60\n      jumpi\n      mload(0x40)\n      0x08c379a000000000000000000000000000000000000000000000000000000000\n      dup2\n      mstore\n      0x04\n      add\n      tag_61\n      swap1\n      tag_62\n      jump\t// in\n    tag_61:\n      mload(0x40)\n      dup1\n      swap2\n      sub\n      swap1\n      revert\n    tag_60:\n        /* \"contracts/Final_Contract.sol\":1902:1918  proposal_history */\n      0x02\n        /* \"contracts/Final_Contract.sol\":1902:1927  proposal_history[counter] */\n      0x00\n        /* \"contracts/Final_Contract.sol\":1919:1926  counter */\n      sload(0x01)\n        /* \"contracts/Final_Contract.sol\":1902:1927  proposal_history[counter] */\n      dup2\n      mstore\n      0x20\n      add\n      swap1\n      dup2\n      mstore\n      0x20\n      add\n      0x00\n      keccak256\n        /* \"contracts/Final_Contract.sol\":1377:1408  calculateCurrentState(proposal) */\n      tag_64\n        /* \"contracts/Final_Contract.sol\":1399:1407  proposal */\n      dup2\n        /* \"contracts/Final_Contract.sol\":1377:1398  calculateCurrentState */\n      tag_65\n        /* \"contracts/Final_Contract.sol\":1377:1408  calculateCurrentState(proposal) */\n      jump\t// in\n    tag_64:\n        /* \"contracts/Final_Contract.sol\":1369:1432  require(calculateCurrentState(proposal), \"Vote limit reached!\") */\n      tag_66\n      jumpi\n      mload(0x40)\n      0x08c379a000000000000000000000000000000000000000000000000000000000\n      dup2\n      mstore\n      0x04\n      add\n      tag_67\n      swap1\n      tag_68\n      jump\t// in\n    tag_67:\n      mload(0x40)\n      dup1\n      swap2\n      sub\n      swap1\n      revert\n    tag_66:\n        /* \"contracts/Final_Contract.sol\":1938:1963  Proposal storage proposal */\n      0x00\n        /* \"contracts/Final_Contract.sol\":1966:1982  proposal_history */\n      0x02\n        /* \"contracts/Final_Contract.sol\":1966:1991  proposal_history[counter] */\n      0x00\n        /* \"contracts/Final_Contract.sol\":1983:1990  counter */\n      sload(0x01)\n        /* \"contracts/Final_Contract.sol\":1966:1991  proposal_history[counter] */\n      dup2\n      mstore\n      0x20\n      add\n      swap1\n      dup2\n      mstore\n      0x20\n      add\n      0x00\n      keccak256\n        /* \"contracts/Final_Contract.sol\":1938:1991  Proposal storage proposal = proposal_history[counter] */\n      swap1\n      pop\n        /* \"contracts/Final_Contract.sol\":2024:2025  1 */\n      0x01\n        /* \"contracts/Final_Contract.sol\":2014:2020  choice */\n      dup4\n        /* \"contracts/Final_Contract.sol\":2014:2025  choice == 1 */\n      0xff\n      and\n      sub\n        /* \"contracts/Final_Contract.sol\":2010:2161  if (choice == 1)        proposal.approve += 1;... */\n      tag_70\n      jumpi\n        /* \"contracts/Final_Contract.sol\":2054:2055  1 */\n      0x01\n        /* \"contracts/Final_Contract.sol\":2034:2042  proposal */\n      dup2\n        /* \"contracts/Final_Contract.sol\":2034:2050  proposal.approve */\n      0x01\n      add\n      0x00\n        /* \"contracts/Final_Contract.sol\":2034:2055  proposal.approve += 1 */\n      dup3\n      dup3\n      sload\n      tag_71\n      swap2\n      swap1\n      tag_54\n      jump\t// in\n    tag_71:\n      swap3\n      pop\n      pop\n      dup2\n      swap1\n      sstore\n      pop\n        /* \"contracts/Final_Contract.sol\":2010:2161  if (choice == 1)        proposal.approve += 1;... */\n      jump(tag_72)\n    tag_70:\n        /* \"contracts/Final_Contract.sol\":2084:2085  2 */\n      0x02\n        /* \"contracts/Final_Contract.sol\":2074:2080  choice */\n      dup4\n        /* \"contracts/Final_Contract.sol\":2074:2085  choice == 2 */\n      0xff\n      and\n      sub\n        /* \"contracts/Final_Contract.sol\":2070:2161  if (choice == 2)   proposal.reject += 1;... */\n      tag_73\n      jumpi\n        /* \"contracts/Final_Contract.sol\":2108:2109  1 */\n      0x01\n        /* \"contracts/Final_Contract.sol\":2089:2097  proposal */\n      dup2\n        /* \"contracts/Final_Contract.sol\":2089:2104  proposal.reject */\n      0x02\n      add\n      0x00\n        /* \"contracts/Final_Contract.sol\":2089:2109  proposal.reject += 1 */\n      dup3\n      dup3\n      sload\n      tag_74\n      swap2\n      swap1\n      tag_54\n      jump\t// in\n    tag_74:\n      swap3\n      pop\n      pop\n      dup2\n      swap1\n      sstore\n      pop\n        /* \"contracts/Final_Contract.sol\":2070:2161  if (choice == 2)   proposal.reject += 1;... */\n      jump(tag_75)\n    tag_73:\n        /* \"contracts/Final_Contract.sol\":2138:2139  0 */\n      0x00\n        /* \"contracts/Final_Contract.sol\":2128:2134  choice */\n      dup4\n        /* \"contracts/Final_Contract.sol\":2128:2139  choice == 0 */\n      0xff\n      and\n      sub\n        /* \"contracts/Final_Contract.sol\":2124:2161  if (choice == 0)   proposal.pass += 1 */\n      tag_76\n      jumpi\n        /* \"contracts/Final_Contract.sol\":2160:2161  1 */\n      0x01\n        /* \"contracts/Final_Contract.sol\":2143:2151  proposal */\n      dup2\n        /* \"contracts/Final_Contract.sol\":2143:2156  proposal.pass */\n      0x03\n      add\n      0x00\n        /* \"contracts/Final_Contract.sol\":2143:2161  proposal.pass += 1 */\n      dup3\n      dup3\n      sload\n      tag_77\n      swap2\n      swap1\n      tag_54\n      jump\t// in\n    tag_77:\n      swap3\n      pop\n      pop\n      dup2\n      swap1\n      sstore\n      pop\n        /* \"contracts/Final_Contract.sol\":2124:2161  if (choice == 0)   proposal.pass += 1 */\n    tag_76:\n        /* \"contracts/Final_Contract.sol\":2070:2161  if (choice == 2)   proposal.reject += 1;... */\n    tag_75:\n        /* \"contracts/Final_Contract.sol\":2010:2161  if (choice == 1)        proposal.approve += 1;... */\n    tag_72:\n        /* \"contracts/Final_Contract.sol\":2260:2261  1 */\n      0x01\n        /* \"contracts/Final_Contract.sol\":2242:2256  getTotalVote() */\n      tag_78\n        /* \"contracts/Final_Contract.sol\":2242:2254  getTotalVote */\n      tag_28\n        /* \"contracts/Final_Contract.sol\":2242:2256  getTotalVote() */\n      jump\t// in\n    tag_78:\n        /* \"contracts/Final_Contract.sol\":2220:2228  proposal */\n      dup3\n        /* \"contracts/Final_Contract.sol\":2220:2239  proposal.vote_limit */\n      0x04\n      add\n      sload\n        /* \"contracts/Final_Contract.sol\":2220:2256  proposal.vote_limit - getTotalVote() */\n      tag_79\n      swap2\n      swap1\n      tag_80\n      jump\t// in\n    tag_79:\n        /* \"contracts/Final_Contract.sol\":2220:2261  proposal.vote_limit - getTotalVote() == 1 */\n      sub\n        /* \"contracts/Final_Contract.sol\":2215:2315  if ((proposal.vote_limit - getTotalVote() == 1)) {... */\n      tag_81\n      jumpi\n        /* \"contracts/Final_Contract.sol\":2299:2304  false */\n      0x00\n        /* \"contracts/Final_Contract.sol\":2278:2286  proposal */\n      dup2\n        /* \"contracts/Final_Contract.sol\":2278:2296  proposal.is_active */\n      0x05\n      add\n      0x00\n        /* \"contracts/Final_Contract.sol\":2278:2304  proposal.is_active = false */\n      0x0100\n      exp\n      dup2\n      sload\n      dup2\n      0xff\n      mul\n      not\n      and\n      swap1\n      dup4\n      iszero\n      iszero\n      mul\n      or\n      swap1\n      sstore\n      pop\n        /* \"contracts/Final_Contract.sol\":2215:2315  if ((proposal.vote_limit - getTotalVote() == 1)) {... */\n    tag_81:\n        /* \"contracts/Final_Contract.sol\":1928:2321  {... */\n      pop\n        /* \"contracts/Final_Contract.sol\":1205:1206  _ */\n      pop\n        /* \"contracts/Final_Contract.sol\":1836:2321  function vote(uint8 choice) external active hasNotVoted voteLimit(proposal_history[counter]){... */\n      pop\n      jump\t// out\n        /* \"contracts/Final_Contract.sol\":3444:3623  function getTotalVote() public view returns (uint256) {... */\n    tag_28:\n        /* \"contracts/Final_Contract.sol\":3489:3496  uint256 */\n      0x00\n        /* \"contracts/Final_Contract.sol\":3586:3602  proposal_history */\n      0x02\n        /* \"contracts/Final_Contract.sol\":3586:3611  proposal_history[counter] */\n      0x00\n        /* \"contracts/Final_Contract.sol\":3603:3610  counter */\n      sload(0x01)\n        /* \"contracts/Final_Contract.sol\":3586:3611  proposal_history[counter] */\n      dup2\n      mstore\n      0x20\n      add\n      swap1\n      dup2\n      mstore\n      0x20\n      add\n      0x00\n      keccak256\n        /* \"contracts/Final_Contract.sol\":3586:3616  proposal_history[counter].pass */\n      0x03\n      add\n      sload\n        /* \"contracts/Final_Contract.sol\":3551:3567  proposal_history */\n      0x02\n        /* \"contracts/Final_Contract.sol\":3551:3576  proposal_history[counter] */\n      0x00\n        /* \"contracts/Final_Contract.sol\":3568:3575  counter */\n      sload(0x01)\n        /* \"contracts/Final_Contract.sol\":3551:3576  proposal_history[counter] */\n      dup2\n      mstore\n      0x20\n      add\n      swap1\n      dup2\n      mstore\n      0x20\n      add\n      0x00\n      keccak256\n        /* \"contracts/Final_Contract.sol\":3551:3583  proposal_history[counter].reject */\n      0x02\n      add\n      sload\n        /* \"contracts/Final_Contract.sol\":3515:3531  proposal_history */\n      0x02\n        /* \"contracts/Final_Contract.sol\":3515:3540  proposal_history[counter] */\n      0x00\n        /* \"contracts/Final_Contract.sol\":3532:3539  counter */\n      sload(0x01)\n        /* \"contracts/Final_Contract.sol\":3515:3540  proposal_history[counter] */\n      dup2\n      mstore\n      0x20\n      add\n      swap1\n      dup2\n      mstore\n      0x20\n      add\n      0x00\n      keccak256\n        /* \"contracts/Final_Contract.sol\":3515:3548  proposal_history[counter].approve */\n      0x01\n      add\n      sload\n        /* \"contracts/Final_Contract.sol\":3515:3583  proposal_history[counter].approve + proposal_history[counter].reject */\n      tag_83\n      swap2\n      swap1\n      tag_54\n      jump\t// in\n    tag_83:\n        /* \"contracts/Final_Contract.sol\":3515:3616  proposal_history[counter].approve + proposal_history[counter].reject + proposal_history[counter].pass */\n      tag_84\n      swap2\n      swap1\n      tag_54\n      jump\t// in\n    tag_84:\n        /* \"contracts/Final_Contract.sol\":3508:3616  return proposal_history[counter].approve + proposal_history[counter].reject + proposal_history[counter].pass */\n      swap1\n      pop\n        /* \"contracts/Final_Contract.sol\":3444:3623  function getTotalVote() public view returns (uint256) {... */\n      swap1\n      jump\t// out\n        /* \"contracts/Final_Contract.sol\":3251:3375  function getProposal(uint256 number) external view returns(Proposal memory) {... */\n    tag_34:\n        /* \"contracts/Final_Contract.sol\":3310:3325  Proposal memory */\n      tag_85\n      tag_42\n      jump\t// in\n    tag_85:\n        /* \"contracts/Final_Contract.sol\":3344:3360  proposal_history */\n      0x02\n        /* \"contracts/Final_Contract.sol\":3344:3368  proposal_history[number] */\n      0x00\n        /* \"contracts/Final_Contract.sol\":3361:3367  number */\n      dup4\n        /* \"contracts/Final_Contract.sol\":3344:3368  proposal_history[number] */\n      dup2\n      mstore\n      0x20\n      add\n      swap1\n      dup2\n      mstore\n      0x20\n      add\n      0x00\n      keccak256\n        /* \"contracts/Final_Contract.sol\":3337:3368  return proposal_history[number] */\n      mload(0x40)\n      dup1\n      0xc0\n      add\n      0x40\n      mstore\n      swap1\n      dup2\n      0x00\n      dup3\n      add\n      dup1\n      sload\n      tag_87\n      swap1\n      tag_45\n      jump\t// in\n    tag_87:\n      dup1\n      0x1f\n      add\n      0x20\n      dup1\n      swap2\n      div\n      mul\n      0x20\n      add\n      mload(0x40)\n      swap1\n      dup2\n      add\n      0x40\n      mstore\n      dup1\n      swap3\n      swap2\n      swap1\n      dup2\n      dup2\n      mstore\n      0x20\n      add\n      dup3\n      dup1\n      sload\n      tag_88\n      swap1\n      tag_45\n      jump\t// in\n    tag_88:\n      dup1\n      iszero\n      tag_89\n      jumpi\n      dup1\n      0x1f\n      lt\n      tag_90\n      jumpi\n      0x0100\n      dup1\n      dup4\n      sload\n      div\n      mul\n      dup4\n      mstore\n      swap2\n      0x20\n      add\n      swap2\n      jump(tag_89)\n    tag_90:\n      dup3\n      add\n      swap2\n      swap1\n      0x00\n      mstore\n      keccak256(0x00, 0x20)\n      swap1\n    tag_91:\n      dup2\n      sload\n      dup2\n      mstore\n      swap1\n      0x01\n      add\n      swap1\n      0x20\n      add\n      dup1\n      dup4\n      gt\n      tag_91\n      jumpi\n      dup3\n      swap1\n      sub\n      0x1f\n      and\n      dup3\n      add\n      swap2\n    tag_89:\n      pop\n      pop\n      pop\n      pop\n      pop\n      dup2\n      mstore\n      0x20\n      add\n      0x01\n      dup3\n      add\n      sload\n      dup2\n      mstore\n      0x20\n      add\n      0x02\n      dup3\n      add\n      sload\n      dup2\n      mstore\n      0x20\n      add\n      0x03\n      dup3\n      add\n      sload\n      dup2\n      mstore\n      0x20\n      add\n      0x04\n      dup3\n      add\n      sload\n      dup2\n      mstore\n      0x20\n      add\n      0x05\n      dup3\n      add\n      0x00\n      swap1\n      sload\n      swap1\n      0x0100\n      exp\n      swap1\n      div\n      0xff\n      and\n      iszero\n      iszero\n      iszero\n      iszero\n      dup2\n      mstore\n      pop\n      pop\n      swap1\n      pop\n        /* \"contracts/Final_Contract.sol\":3251:3375  function getProposal(uint256 number) external view returns(Proposal memory) {... */\n      swap2\n      swap1\n      pop\n      jump\t// out\n        /* \"contracts/Final_Contract.sol\":2327:2442  function terminateProposal() external onlyOwner active {... */\n    tag_37:\n        /* \"contracts/Final_Contract.sol\":968:973  owner */\n      0x00\n      dup1\n      sload\n      swap1\n      0x0100\n      exp\n      swap1\n      div\n      0xffffffffffffffffffffffffffffffffffffffff\n      and\n        /* \"contracts/Final_Contract.sol\":954:973  msg.sender == owner */\n      0xffffffffffffffffffffffffffffffffffffffff\n      and\n        /* \"contracts/Final_Contract.sol\":954:964  msg.sender */\n      caller\n        /* \"contracts/Final_Contract.sol\":954:973  msg.sender == owner */\n      0xffffffffffffffffffffffffffffffffffffffff\n      and\n      eq\n        /* \"contracts/Final_Contract.sol\":946:974  require(msg.sender == owner) */\n      tag_93\n      jumpi\n      0x00\n      dup1\n      revert\n    tag_93:\n        /* \"contracts/Final_Contract.sol\":1073:1077  true */\n      0x01\n        /* \"contracts/Final_Contract.sol\":1034:1077  proposal_history[counter].is_active == true */\n      iszero\n      iszero\n        /* \"contracts/Final_Contract.sol\":1034:1050  proposal_history */\n      0x02\n        /* \"contracts/Final_Contract.sol\":1034:1059  proposal_history[counter] */\n      0x00\n        /* \"contracts/Final_Contract.sol\":1051:1058  counter */\n      sload(0x01)\n        /* \"contracts/Final_Contract.sol\":1034:1059  proposal_history[counter] */\n      dup2\n      mstore\n      0x20\n      add\n      swap1\n      dup2\n      mstore\n      0x20\n      add\n      0x00\n      keccak256\n        /* \"contracts/Final_Contract.sol\":1034:1069  proposal_history[counter].is_active */\n      0x05\n      add\n      0x00\n      swap1\n      sload\n      swap1\n      0x0100\n      exp\n      swap1\n      div\n      0xff\n      and\n        /* \"contracts/Final_Contract.sol\":1034:1077  proposal_history[counter].is_active == true */\n      iszero\n      iszero\n      eq\n        /* \"contracts/Final_Contract.sol\":1026:1078  require(proposal_history[counter].is_active == true) */\n      tag_95\n      jumpi\n      0x00\n      dup1\n      revert\n    tag_95:\n        /* \"contracts/Final_Contract.sol\":2430:2435  false */\n      0x00\n        /* \"contracts/Final_Contract.sol\":2392:2408  proposal_history */\n      0x02\n        /* \"contracts/Final_Contract.sol\":2392:2417  proposal_history[counter] */\n      0x00\n        /* \"contracts/Final_Contract.sol\":2409:2416  counter */\n      sload(0x01)\n        /* \"contracts/Final_Contract.sol\":2392:2417  proposal_history[counter] */\n      dup2\n      mstore\n      0x20\n      add\n      swap1\n      dup2\n      mstore\n      0x20\n      add\n      0x00\n      keccak256\n        /* \"contracts/Final_Contract.sol\":2392:2427  proposal_history[counter].is_active */\n      0x05\n      add\n      0x00\n        /* \"contracts/Final_Contract.sol\":2392:2435  proposal_history[counter].is_active = false */\n      0x0100\n      exp\n      dup2\n      sload\n      dup2\n      0xff\n      mul\n      not\n      and\n      swap1\n      dup4\n      iszero\n      iszero\n      mul\n      or\n      swap1\n      sstore\n      pop\n        /* \"contracts/Final_Contract.sol\":2327:2442  function terminateProposal() external onlyOwner active {... */\n      jump\t// out\n        /* \"contracts/Final_Contract.sol\":2553:3053  function calculateCurrentState(Proposal storage proposal) private view returns(bool) {... */\n    tag_65:\n        /* \"contracts/Final_Contract.sol\":2632:2636  bool */\n      0x00\n        /* \"contracts/Final_Contract.sol\":2648:2663  uint256 approve */\n      dup1\n        /* \"contracts/Final_Contract.sol\":2666:2674  proposal */\n      dup3\n        /* \"contracts/Final_Contract.sol\":2666:2682  proposal.approve */\n      0x01\n      add\n      sload\n        /* \"contracts/Final_Contract.sol\":2648:2682  uint256 approve = proposal.approve */\n      swap1\n      pop\n        /* \"contracts/Final_Contract.sol\":2692:2706  uint256 reject */\n      0x00\n        /* \"contracts/Final_Contract.sol\":2709:2717  proposal */\n      dup4\n        /* \"contracts/Final_Contract.sol\":2709:2724  proposal.reject */\n      0x02\n      add\n      sload\n        /* \"contracts/Final_Contract.sol\":2692:2724  uint256 reject = proposal.reject */\n      swap1\n      pop\n        /* \"contracts/Final_Contract.sol\":2734:2746  uint256 pass */\n      0x00\n        /* \"contracts/Final_Contract.sol\":2749:2757  proposal */\n      dup5\n        /* \"contracts/Final_Contract.sol\":2749:2762  proposal.pass */\n      0x03\n      add\n      sload\n        /* \"contracts/Final_Contract.sol\":2734:2762  uint256 pass = proposal.pass */\n      swap1\n      pop\n        /* \"contracts/Final_Contract.sol\":2878:2893  uint256 average */\n      0x00\n        /* \"contracts/Final_Contract.sol\":2926:2927  1 */\n      0x01\n        /* \"contracts/Final_Contract.sol\":2917:2921  pass */\n      dup3\n        /* \"contracts/Final_Contract.sol\":2908:2914  reject */\n      dup5\n        /* \"contracts/Final_Contract.sol\":2898:2905  approve */\n      dup7\n        /* \"contracts/Final_Contract.sol\":2898:2914  approve + reject */\n      tag_98\n      swap2\n      swap1\n      tag_54\n      jump\t// in\n    tag_98:\n        /* \"contracts/Final_Contract.sol\":2898:2921  approve + reject + pass */\n      tag_99\n      swap2\n      swap1\n      tag_54\n      jump\t// in\n    tag_99:\n        /* \"contracts/Final_Contract.sol\":2897:2927  (approve + reject + pass) >> 1 */\n      swap1\n      shr\n        /* \"contracts/Final_Contract.sol\":2878:2928  uint256 average = ((approve + reject + pass) >> 1) */\n      swap1\n      pop\n        /* \"contracts/Final_Contract.sol\":2962:2966  pass */\n      dup2\n        /* \"contracts/Final_Contract.sol\":2953:2959  reject */\n      dup4\n        /* \"contracts/Final_Contract.sol\":2953:2966  reject + pass */\n      tag_100\n      swap2\n      swap1\n      tag_54\n      jump\t// in\n    tag_100:\n        /* \"contracts/Final_Contract.sol\":2943:2950  average */\n      dup2\n        /* \"contracts/Final_Contract.sol\":2943:2966  average > reject + pass */\n      gt\n        /* \"contracts/Final_Contract.sol\":2939:3047  if (average > reject + pass) {... */\n      iszero\n      tag_101\n      jumpi\n        /* \"contracts/Final_Contract.sol\":2989:2993  true */\n      0x01\n        /* \"contracts/Final_Contract.sol\":2982:2993  return true */\n      swap5\n      pop\n      pop\n      pop\n      pop\n      pop\n      jump(tag_97)\n        /* \"contracts/Final_Contract.sol\":2939:3047  if (average > reject + pass) {... */\n    tag_101:\n        /* \"contracts/Final_Contract.sol\":3031:3036  false */\n      0x00\n        /* \"contracts/Final_Contract.sol\":3024:3036  return false */\n      swap5\n      pop\n      pop\n      pop\n      pop\n      pop\n        /* \"contracts/Final_Contract.sol\":2553:3053  function calculateCurrentState(Proposal storage proposal) private view returns(bool) {... */\n    tag_97:\n      swap2\n      swap1\n      pop\n      jump\t// out\n    tag_42:\n      mload(0x40)\n      dup1\n      0xc0\n      add\n      0x40\n      mstore\n      dup1\n      0x60\n      dup2\n      mstore\n      0x20\n      add\n      0x00\n      dup2\n      mstore\n      0x20\n      add\n      0x00\n      dup2\n      mstore\n      0x20\n      add\n      0x00\n      dup2\n      mstore\n      0x20\n      add\n      0x00\n      dup2\n      mstore\n      0x20\n      add\n      iszero(iszero(0x00))\n      dup2\n      mstore\n      pop\n      swap1\n      jump\t// out\n        /* \"#utility.yul\":88:205   */\n    tag_104:\n        /* \"#utility.yul\":197:198   */\n      0x00\n        /* \"#utility.yul\":194:195   */\n      dup1\n        /* \"#utility.yul\":187:199   */\n      revert\n        /* \"#utility.yul\":211:328   */\n    tag_105:\n        /* \"#utility.yul\":320:321   */\n      0x00\n        /* \"#utility.yul\":317:318   */\n      dup1\n        /* \"#utility.yul\":310:322   */\n      revert\n        /* \"#utility.yul\":334:460   */\n    tag_106:\n        /* \"#utility.yul\":371:378   */\n      0x00\n        /* \"#utility.yul\":411:453   */\n      0xffffffffffffffffffffffffffffffffffffffff\n        /* \"#utility.yul\":404:409   */\n      dup3\n        /* \"#utility.yul\":400:454   */\n      and\n        /* \"#utility.yul\":389:454   */\n      swap1\n      pop\n        /* \"#utility.yul\":334:460   */\n      swap2\n      swap1\n      pop\n      jump\t// out\n        /* \"#utility.yul\":466:562   */\n    tag_107:\n        /* \"#utility.yul\":503:510   */\n      0x00\n        /* \"#utility.yul\":532:556   */\n      tag_159\n        /* \"#utility.yul\":550:555   */\n      dup3\n        /* \"#utility.yul\":532:556   */\n      tag_106\n      jump\t// in\n    tag_159:\n        /* \"#utility.yul\":521:556   */\n      swap1\n      pop\n        /* \"#utility.yul\":466:562   */\n      swap2\n      swap1\n      pop\n      jump\t// out\n        /* \"#utility.yul\":568:690   */\n    tag_108:\n        /* \"#utility.yul\":641:665   */\n      tag_161\n        /* \"#utility.yul\":659:664   */\n      dup2\n        /* \"#utility.yul\":641:665   */\n      tag_107\n      jump\t// in\n    tag_161:\n        /* \"#utility.yul\":634:639   */\n      dup2\n        /* \"#utility.yul\":631:666   */\n      eq\n        /* \"#utility.yul\":621:684   */\n      tag_162\n      jumpi\n        /* \"#utility.yul\":680:681   */\n      0x00\n        /* \"#utility.yul\":677:678   */\n      dup1\n        /* \"#utility.yul\":670:682   */\n      revert\n        /* \"#utility.yul\":621:684   */\n    tag_162:\n        /* \"#utility.yul\":568:690   */\n      pop\n      jump\t// out\n        /* \"#utility.yul\":696:835   */\n    tag_109:\n        /* \"#utility.yul\":742:747   */\n      0x00\n        /* \"#utility.yul\":780:786   */\n      dup2\n        /* \"#utility.yul\":767:787   */\n      calldataload\n        /* \"#utility.yul\":758:787   */\n      swap1\n      pop\n        /* \"#utility.yul\":796:829   */\n      tag_164\n        /* \"#utility.yul\":823:828   */\n      dup2\n        /* \"#utility.yul\":796:829   */\n      tag_108\n      jump\t// in\n    tag_164:\n        /* \"#utility.yul\":696:835   */\n      swap3\n      swap2\n      pop\n      pop\n      jump\t// out\n        /* \"#utility.yul\":841:1170   */\n    tag_13:\n        /* \"#utility.yul\":900:906   */\n      0x00\n        /* \"#utility.yul\":949:951   */\n      0x20\n        /* \"#utility.yul\":937:946   */\n      dup3\n        /* \"#utility.yul\":928:935   */\n      dup5\n        /* \"#utility.yul\":924:947   */\n      sub\n        /* \"#utility.yul\":920:952   */\n      slt\n        /* \"#utility.yul\":917:1036   */\n      iszero\n      tag_166\n      jumpi\n        /* \"#utility.yul\":955:1034   */\n      tag_167\n      tag_104\n      jump\t// in\n    tag_167:\n        /* \"#utility.yul\":917:1036   */\n    tag_166:\n        /* \"#utility.yul\":1075:1076   */\n      0x00\n        /* \"#utility.yul\":1100:1153   */\n      tag_168\n        /* \"#utility.yul\":1145:1152   */\n      dup5\n        /* \"#utility.yul\":1136:1142   */\n      dup3\n        /* \"#utility.yul\":1125:1134   */\n      dup6\n        /* \"#utility.yul\":1121:1143   */\n      add\n        /* \"#utility.yul\":1100:1153   */\n      tag_109\n      jump\t// in\n    tag_168:\n        /* \"#utility.yul\":1090:1153   */\n      swap2\n      pop\n        /* \"#utility.yul\":1046:1163   */\n      pop\n        /* \"#utility.yul\":841:1170   */\n      swap3\n      swap2\n      pop\n      pop\n      jump\t// out\n        /* \"#utility.yul\":1176:1275   */\n    tag_110:\n        /* \"#utility.yul\":1228:1234   */\n      0x00\n        /* \"#utility.yul\":1262:1267   */\n      dup2\n        /* \"#utility.yul\":1256:1268   */\n      mload\n        /* \"#utility.yul\":1246:1268   */\n      swap1\n      pop\n        /* \"#utility.yul\":1176:1275   */\n      swap2\n      swap1\n      pop\n      jump\t// out\n        /* \"#utility.yul\":1281:1440   */\n    tag_111:\n        /* \"#utility.yul\":1355:1366   */\n      0x00\n        /* \"#utility.yul\":1389:1395   */\n      dup3\n        /* \"#utility.yul\":1384:1387   */\n      dup3\n        /* \"#utility.yul\":1377:1396   */\n      mstore\n        /* \"#utility.yul\":1429:1433   */\n      0x20\n        /* \"#utility.yul\":1424:1427   */\n      dup3\n        /* \"#utility.yul\":1420:1434   */\n      add\n        /* \"#utility.yul\":1405:1434   */\n      swap1\n      pop\n        /* \"#utility.yul\":1281:1440   */\n      swap3\n      swap2\n      pop\n      pop\n      jump\t// out\n        /* \"#utility.yul\":1446:1692   */\n    tag_112:\n        /* \"#utility.yul\":1527:1528   */\n      0x00\n        /* \"#utility.yul\":1537:1650   */\n    tag_172:\n        /* \"#utility.yul\":1551:1557   */\n      dup4\n        /* \"#utility.yul\":1548:1549   */\n      dup2\n        /* \"#utility.yul\":1545:1558   */\n      lt\n        /* \"#utility.yul\":1537:1650   */\n      iszero\n      tag_174\n      jumpi\n        /* \"#utility.yul\":1636:1637   */\n      dup1\n        /* \"#utility.yul\":1631:1634   */\n      dup3\n        /* \"#utility.yul\":1627:1638   */\n      add\n        /* \"#utility.yul\":1621:1639   */\n      mload\n        /* \"#utility.yul\":1617:1618   */\n      dup2\n        /* \"#utility.yul\":1612:1615   */\n      dup5\n        /* \"#utility.yul\":1608:1619   */\n      add\n        /* \"#utility.yul\":1601:1640   */\n      mstore\n        /* \"#utility.yul\":1573:1575   */\n      0x20\n        /* \"#utility.yul\":1570:1571   */\n      dup2\n        /* \"#utility.yul\":1566:1576   */\n      add\n        /* \"#utility.yul\":1561:1576   */\n      swap1\n      pop\n        /* \"#utility.yul\":1537:1650   */\n      jump(tag_172)\n    tag_174:\n        /* \"#utility.yul\":1684:1685   */\n      0x00\n        /* \"#utility.yul\":1675:1681   */\n      dup5\n        /* \"#utility.yul\":1670:1673   */\n      dup5\n        /* \"#utility.yul\":1666:1682   */\n      add\n        /* \"#utility.yul\":1659:1686   */\n      mstore\n        /* \"#utility.yul\":1508:1692   */\n      pop\n        /* \"#utility.yul\":1446:1692   */\n      pop\n      pop\n      pop\n      jump\t// out\n        /* \"#utility.yul\":1698:1800   */\n    tag_113:\n        /* \"#utility.yul\":1739:1745   */\n      0x00\n        /* \"#utility.yul\":1790:1792   */\n      0x1f\n        /* \"#utility.yul\":1786:1793   */\n      not\n        /* \"#utility.yul\":1781:1783   */\n      0x1f\n        /* \"#utility.yul\":1774:1779   */\n      dup4\n        /* \"#utility.yul\":1770:1784   */\n      add\n        /* \"#utility.yul\":1766:1794   */\n      and\n        /* \"#utility.yul\":1756:1794   */\n      swap1\n      pop\n        /* \"#utility.yul\":1698:1800   */\n      swap2\n      swap1\n      pop\n      jump\t// out\n        /* \"#utility.yul\":1806:2163   */\n    tag_114:\n        /* \"#utility.yul\":1884:1887   */\n      0x00\n        /* \"#utility.yul\":1912:1951   */\n      tag_177\n        /* \"#utility.yul\":1945:1950   */\n      dup3\n        /* \"#utility.yul\":1912:1951   */\n      tag_110\n      jump\t// in\n    tag_177:\n        /* \"#utility.yul\":1967:2028   */\n      tag_178\n        /* \"#utility.yul\":2021:2027   */\n      dup2\n        /* \"#utility.yul\":2016:2019   */\n      dup6\n        /* \"#utility.yul\":1967:2028   */\n      tag_111\n      jump\t// in\n    tag_178:\n        /* \"#utility.yul\":1960:2028   */\n      swap4\n      pop\n        /* \"#utility.yul\":2037:2102   */\n      tag_179\n        /* \"#utility.yul\":2095:2101   */\n      dup2\n        /* \"#utility.yul\":2090:2093   */\n      dup6\n        /* \"#utility.yul\":2083:2087   */\n      0x20\n        /* \"#utility.yul\":2076:2081   */\n      dup7\n        /* \"#utility.yul\":2072:2088   */\n      add\n        /* \"#utility.yul\":2037:2102   */\n      tag_112\n      jump\t// in\n    tag_179:\n        /* \"#utility.yul\":2127:2156   */\n      tag_180\n        /* \"#utility.yul\":2149:2155   */\n      dup2\n        /* \"#utility.yul\":2127:2156   */\n      tag_113\n      jump\t// in\n    tag_180:\n        /* \"#utility.yul\":2122:2125   */\n      dup5\n        /* \"#utility.yul\":2118:2157   */\n      add\n        /* \"#utility.yul\":2111:2157   */\n      swap2\n      pop\n        /* \"#utility.yul\":1888:2163   */\n      pop\n        /* \"#utility.yul\":1806:2163   */\n      swap3\n      swap2\n      pop\n      pop\n      jump\t// out\n        /* \"#utility.yul\":2169:2246   */\n    tag_115:\n        /* \"#utility.yul\":2206:2213   */\n      0x00\n        /* \"#utility.yul\":2235:2240   */\n      dup2\n        /* \"#utility.yul\":2224:2240   */\n      swap1\n      pop\n        /* \"#utility.yul\":2169:2246   */\n      swap2\n      swap1\n      pop\n      jump\t// out\n        /* \"#utility.yul\":2252:2360   */\n    tag_116:\n        /* \"#utility.yul\":2329:2353   */\n      tag_183\n        /* \"#utility.yul\":2347:2352   */\n      dup2\n        /* \"#utility.yul\":2329:2353   */\n      tag_115\n      jump\t// in\n    tag_183:\n        /* \"#utility.yul\":2324:2327   */\n      dup3\n        /* \"#utility.yul\":2317:2354   */\n      mstore\n        /* \"#utility.yul\":2252:2360   */\n      pop\n      pop\n      jump\t// out\n        /* \"#utility.yul\":2366:2456   */\n    tag_117:\n        /* \"#utility.yul\":2400:2407   */\n      0x00\n        /* \"#utility.yul\":2443:2448   */\n      dup2\n        /* \"#utility.yul\":2436:2449   */\n      iszero\n        /* \"#utility.yul\":2429:2450   */\n      iszero\n        /* \"#utility.yul\":2418:2450   */\n      swap1\n      pop\n        /* \"#utility.yul\":2366:2456   */\n      swap2\n      swap1\n      pop\n      jump\t// out\n        /* \"#utility.yul\":2462:2561   */\n    tag_118:\n        /* \"#utility.yul\":2533:2554   */\n      tag_186\n        /* \"#utility.yul\":2548:2553   */\n      dup2\n        /* \"#utility.yul\":2533:2554   */\n      tag_117\n      jump\t// in\n    tag_186:\n        /* \"#utility.yul\":2528:2531   */\n      dup3\n        /* \"#utility.yul\":2521:2555   */\n      mstore\n        /* \"#utility.yul\":2462:2561   */\n      pop\n      pop\n      jump\t// out\n        /* \"#utility.yul\":2643:3960   */\n    tag_119:\n        /* \"#utility.yul\":2760:2763   */\n      0x00\n        /* \"#utility.yul\":2796:2800   */\n      0xc0\n        /* \"#utility.yul\":2791:2794   */\n      dup4\n        /* \"#utility.yul\":2787:2801   */\n      add\n        /* \"#utility.yul\":2890:2894   */\n      0x00\n        /* \"#utility.yul\":2883:2888   */\n      dup4\n        /* \"#utility.yul\":2879:2895   */\n      add\n        /* \"#utility.yul\":2873:2896   */\n      mload\n        /* \"#utility.yul\":2943:2946   */\n      dup5\n        /* \"#utility.yul\":2937:2941   */\n      dup3\n        /* \"#utility.yul\":2933:2947   */\n      sub\n        /* \"#utility.yul\":2926:2930   */\n      0x00\n        /* \"#utility.yul\":2921:2924   */\n      dup7\n        /* \"#utility.yul\":2917:2931   */\n      add\n        /* \"#utility.yul\":2910:2948   */\n      mstore\n        /* \"#utility.yul\":2969:3042   */\n      tag_188\n        /* \"#utility.yul\":3037:3041   */\n      dup3\n        /* \"#utility.yul\":3023:3035   */\n      dup3\n        /* \"#utility.yul\":2969:3042   */\n      tag_114\n      jump\t// in\n    tag_188:\n        /* \"#utility.yul\":2961:3042   */\n      swap2\n      pop\n        /* \"#utility.yul\":2811:3053   */\n      pop\n        /* \"#utility.yul\":3138:3142   */\n      0x20\n        /* \"#utility.yul\":3131:3136   */\n      dup4\n        /* \"#utility.yul\":3127:3143   */\n      add\n        /* \"#utility.yul\":3121:3144   */\n      mload\n        /* \"#utility.yul\":3157:3220   */\n      tag_189\n        /* \"#utility.yul\":3214:3218   */\n      0x20\n        /* \"#utility.yul\":3209:3212   */\n      dup7\n        /* \"#utility.yul\":3205:3219   */\n      add\n        /* \"#utility.yul\":3191:3203   */\n      dup3\n        /* \"#utility.yul\":3157:3220   */\n      tag_116\n      jump\t// in\n    tag_189:\n        /* \"#utility.yul\":3063:3230   */\n      pop\n        /* \"#utility.yul\":3314:3318   */\n      0x40\n        /* \"#utility.yul\":3307:3312   */\n      dup4\n        /* \"#utility.yul\":3303:3319   */\n      add\n        /* \"#utility.yul\":3297:3320   */\n      mload\n        /* \"#utility.yul\":3333:3396   */\n      tag_190\n        /* \"#utility.yul\":3390:3394   */\n      0x40\n        /* \"#utility.yul\":3385:3388   */\n      dup7\n        /* \"#utility.yul\":3381:3395   */\n      add\n        /* \"#utility.yul\":3367:3379   */\n      dup3\n        /* \"#utility.yul\":3333:3396   */\n      tag_116\n      jump\t// in\n    tag_190:\n        /* \"#utility.yul\":3240:3406   */\n      pop\n        /* \"#utility.yul\":3488:3492   */\n      0x60\n        /* \"#utility.yul\":3481:3486   */\n      dup4\n        /* \"#utility.yul\":3477:3493   */\n      add\n        /* \"#utility.yul\":3471:3494   */\n      mload\n        /* \"#utility.yul\":3507:3570   */\n      tag_191\n        /* \"#utility.yul\":3564:3568   */\n      0x60\n        /* \"#utility.yul\":3559:3562   */\n      dup7\n        /* \"#utility.yul\":3555:3569   */\n      add\n        /* \"#utility.yul\":3541:3553   */\n      dup3\n        /* \"#utility.yul\":3507:3570   */\n      tag_116\n      jump\t// in\n    tag_191:\n        /* \"#utility.yul\":3416:3580   */\n      pop\n        /* \"#utility.yul\":3668:3672   */\n      0x80\n        /* \"#utility.yul\":3661:3666   */\n      dup4\n        /* \"#utility.yul\":3657:3673   */\n      add\n        /* \"#utility.yul\":3651:3674   */\n      mload\n        /* \"#utility.yul\":3687:3750   */\n      tag_192\n        /* \"#utility.yul\":3744:3748   */\n      0x80\n        /* \"#utility.yul\":3739:3742   */\n      dup7\n        /* \"#utility.yul\":3735:3749   */\n      add\n        /* \"#utility.yul\":3721:3733   */\n      dup3\n        /* \"#utility.yul\":3687:3750   */\n      tag_116\n      jump\t// in\n    tag_192:\n        /* \"#utility.yul\":3590:3760   */\n      pop\n        /* \"#utility.yul\":3847:3851   */\n      0xa0\n        /* \"#utility.yul\":3840:3845   */\n      dup4\n        /* \"#utility.yul\":3836:3852   */\n      add\n        /* \"#utility.yul\":3830:3853   */\n      mload\n        /* \"#utility.yul\":3866:3923   */\n      tag_193\n        /* \"#utility.yul\":3917:3921   */\n      0xa0\n        /* \"#utility.yul\":3912:3915   */\n      dup7\n        /* \"#utility.yul\":3908:3922   */\n      add\n        /* \"#utility.yul\":3894:3906   */\n      dup3\n        /* \"#utility.yul\":3866:3923   */\n      tag_118\n      jump\t// in\n    tag_193:\n        /* \"#utility.yul\":3770:3933   */\n      pop\n        /* \"#utility.yul\":3950:3954   */\n      dup1\n        /* \"#utility.yul\":3943:3954   */\n      swap2\n      pop\n        /* \"#utility.yul\":2765:3960   */\n      pop\n        /* \"#utility.yul\":2643:3960   */\n      swap3\n      swap2\n      pop\n      pop\n      jump\t// out\n        /* \"#utility.yul\":3966:4335   */\n    tag_18:\n        /* \"#utility.yul\":4107:4111   */\n      0x00\n        /* \"#utility.yul\":4145:4147   */\n      0x20\n        /* \"#utility.yul\":4134:4143   */\n      dup3\n        /* \"#utility.yul\":4130:4148   */\n      add\n        /* \"#utility.yul\":4122:4148   */\n      swap1\n      pop\n        /* \"#utility.yul\":4194:4203   */\n      dup2\n        /* \"#utility.yul\":4188:4192   */\n      dup2\n        /* \"#utility.yul\":4184:4204   */\n      sub\n        /* \"#utility.yul\":4180:4181   */\n      0x00\n        /* \"#utility.yul\":4169:4178   */\n      dup4\n        /* \"#utility.yul\":4165:4182   */\n      add\n        /* \"#utility.yul\":4158:4205   */\n      mstore\n        /* \"#utility.yul\":4222:4328   */\n      tag_195\n        /* \"#utility.yul\":4323:4327   */\n      dup2\n        /* \"#utility.yul\":4314:4320   */\n      dup5\n        /* \"#utility.yul\":4222:4328   */\n      tag_119\n      jump\t// in\n    tag_195:\n        /* \"#utility.yul\":4214:4328   */\n      swap1\n      pop\n        /* \"#utility.yul\":3966:4335   */\n      swap3\n      swap2\n      pop\n      pop\n      jump\t// out\n        /* \"#utility.yul\":4341:4458   */\n    tag_120:\n        /* \"#utility.yul\":4450:4451   */\n      0x00\n        /* \"#utility.yul\":4447:4448   */\n      dup1\n        /* \"#utility.yul\":4440:4452   */\n      revert\n        /* \"#utility.yul\":4464:4581   */\n    tag_121:\n        /* \"#utility.yul\":4573:4574   */\n      0x00\n        /* \"#utility.yul\":4570:4571   */\n      dup1\n        /* \"#utility.yul\":4563:4575   */\n      revert\n        /* \"#utility.yul\":4587:4704   */\n    tag_122:\n        /* \"#utility.yul\":4696:4697   */\n      0x00\n        /* \"#utility.yul\":4693:4694   */\n      dup1\n        /* \"#utility.yul\":4686:4698   */\n      revert\n        /* \"#utility.yul\":4724:5277   */\n    tag_123:\n        /* \"#utility.yul\":4782:4790   */\n      0x00\n        /* \"#utility.yul\":4792:4798   */\n      dup1\n        /* \"#utility.yul\":4842:4845   */\n      dup4\n        /* \"#utility.yul\":4835:4839   */\n      0x1f\n        /* \"#utility.yul\":4827:4833   */\n      dup5\n        /* \"#utility.yul\":4823:4840   */\n      add\n        /* \"#utility.yul\":4819:4846   */\n      slt\n        /* \"#utility.yul\":4809:4931   */\n      tag_200\n      jumpi\n        /* \"#utility.yul\":4850:4929   */\n      tag_201\n      tag_120\n      jump\t// in\n    tag_201:\n        /* \"#utility.yul\":4809:4931   */\n    tag_200:\n        /* \"#utility.yul\":4963:4969   */\n      dup3\n        /* \"#utility.yul\":4950:4970   */\n      calldataload\n        /* \"#utility.yul\":4940:4970   */\n      swap1\n      pop\n        /* \"#utility.yul\":4993:5011   */\n      0xffffffffffffffff\n        /* \"#utility.yul\":4985:4991   */\n      dup2\n        /* \"#utility.yul\":4982:5012   */\n      gt\n        /* \"#utility.yul\":4979:5096   */\n      iszero\n      tag_202\n      jumpi\n        /* \"#utility.yul\":5015:5094   */\n      tag_203\n      tag_121\n      jump\t// in\n    tag_203:\n        /* \"#utility.yul\":4979:5096   */\n    tag_202:\n        /* \"#utility.yul\":5129:5133   */\n      0x20\n        /* \"#utility.yul\":5121:5127   */\n      dup4\n        /* \"#utility.yul\":5117:5134   */\n      add\n        /* \"#utility.yul\":5105:5134   */\n      swap2\n      pop\n        /* \"#utility.yul\":5183:5186   */\n      dup4\n        /* \"#utility.yul\":5175:5179   */\n      0x01\n        /* \"#utility.yul\":5167:5173   */\n      dup3\n        /* \"#utility.yul\":5163:5180   */\n      mul\n        /* \"#utility.yul\":5153:5161   */\n      dup4\n        /* \"#utility.yul\":5149:5181   */\n      add\n        /* \"#utility.yul\":5146:5187   */\n      gt\n        /* \"#utility.yul\":5143:5271   */\n      iszero\n      tag_204\n      jumpi\n        /* \"#utility.yul\":5190:5269   */\n      tag_205\n      tag_122\n      jump\t// in\n    tag_205:\n        /* \"#utility.yul\":5143:5271   */\n    tag_204:\n        /* \"#utility.yul\":4724:5277   */\n      swap3\n      pop\n      swap3\n      swap1\n      pop\n      jump\t// out\n        /* \"#utility.yul\":5283:5405   */\n    tag_124:\n        /* \"#utility.yul\":5356:5380   */\n      tag_207\n        /* \"#utility.yul\":5374:5379   */\n      dup2\n        /* \"#utility.yul\":5356:5380   */\n      tag_115\n      jump\t// in\n    tag_207:\n        /* \"#utility.yul\":5349:5354   */\n      dup2\n        /* \"#utility.yul\":5346:5381   */\n      eq\n        /* \"#utility.yul\":5336:5399   */\n      tag_208\n      jumpi\n        /* \"#utility.yul\":5395:5396   */\n      0x00\n        /* \"#utility.yul\":5392:5393   */\n      dup1\n        /* \"#utility.yul\":5385:5397   */\n      revert\n        /* \"#utility.yul\":5336:5399   */\n    tag_208:\n        /* \"#utility.yul\":5283:5405   */\n      pop\n      jump\t// out\n        /* \"#utility.yul\":5411:5550   */\n    tag_125:\n        /* \"#utility.yul\":5457:5462   */\n      0x00\n        /* \"#utility.yul\":5495:5501   */\n      dup2\n        /* \"#utility.yul\":5482:5502   */\n      calldataload\n        /* \"#utility.yul\":5473:5502   */\n      swap1\n      pop\n        /* \"#utility.yul\":5511:5544   */\n      tag_210\n        /* \"#utility.yul\":5538:5543   */\n      dup2\n        /* \"#utility.yul\":5511:5544   */\n      tag_124\n      jump\t// in\n    tag_210:\n        /* \"#utility.yul\":5411:5550   */\n      swap3\n      swap2\n      pop\n      pop\n      jump\t// out\n        /* \"#utility.yul\":5556:6230   */\n    tag_21:\n        /* \"#utility.yul\":5636:5642   */\n      0x00\n        /* \"#utility.yul\":5644:5650   */\n      dup1\n        /* \"#utility.yul\":5652:5658   */\n      0x00\n        /* \"#utility.yul\":5701:5703   */\n      0x40\n        /* \"#utility.yul\":5689:5698   */\n      dup5\n        /* \"#utility.yul\":5680:5687   */\n      dup7\n        /* \"#utility.yul\":5676:5699   */\n      sub\n        /* \"#utility.yul\":5672:5704   */\n      slt\n        /* \"#utility.yul\":5669:5788   */\n      iszero\n      tag_212\n      jumpi\n        /* \"#utility.yul\":5707:5786   */\n      tag_213\n      tag_104\n      jump\t// in\n    tag_213:\n        /* \"#utility.yul\":5669:5788   */\n    tag_212:\n        /* \"#utility.yul\":5855:5856   */\n      0x00\n        /* \"#utility.yul\":5844:5853   */\n      dup5\n        /* \"#utility.yul\":5840:5857   */\n      add\n        /* \"#utility.yul\":5827:5858   */\n      calldataload\n        /* \"#utility.yul\":5885:5903   */\n      0xffffffffffffffff\n        /* \"#utility.yul\":5877:5883   */\n      dup2\n        /* \"#utility.yul\":5874:5904   */\n      gt\n        /* \"#utility.yul\":5871:5988   */\n      iszero\n      tag_214\n      jumpi\n        /* \"#utility.yul\":5907:5986   */\n      tag_215\n      tag_105\n      jump\t// in\n    tag_215:\n        /* \"#utility.yul\":5871:5988   */\n    tag_214:\n        /* \"#utility.yul\":6020:6085   */\n      tag_216\n        /* \"#utility.yul\":6077:6084   */\n      dup7\n        /* \"#utility.yul\":6068:6074   */\n      dup3\n        /* \"#utility.yul\":6057:6066   */\n      dup8\n        /* \"#utility.yul\":6053:6075   */\n      add\n        /* \"#utility.yul\":6020:6085   */\n      tag_123\n      jump\t// in\n    tag_216:\n        /* \"#utility.yul\":6002:6085   */\n      swap4\n      pop\n      swap4\n      pop\n        /* \"#utility.yul\":5798:6095   */\n      pop\n        /* \"#utility.yul\":6134:6136   */\n      0x20\n        /* \"#utility.yul\":6160:6213   */\n      tag_217\n        /* \"#utility.yul\":6205:6212   */\n      dup7\n        /* \"#utility.yul\":6196:6202   */\n      dup3\n        /* \"#utility.yul\":6185:6194   */\n      dup8\n        /* \"#utility.yul\":6181:6203   */\n      add\n        /* \"#utility.yul\":6160:6213   */\n      tag_125\n      jump\t// in\n    tag_217:\n        /* \"#utility.yul\":6150:6213   */\n      swap2\n      pop\n        /* \"#utility.yul\":6105:6223   */\n      pop\n        /* \"#utility.yul\":5556:6230   */\n      swap3\n      pop\n      swap3\n      pop\n      swap3\n      jump\t// out\n        /* \"#utility.yul\":6236:6322   */\n    tag_126:\n        /* \"#utility.yul\":6271:6278   */\n      0x00\n        /* \"#utility.yul\":6311:6315   */\n      0xff\n        /* \"#utility.yul\":6304:6309   */\n      dup3\n        /* \"#utility.yul\":6300:6316   */\n      and\n        /* \"#utility.yul\":6289:6316   */\n      swap1\n      pop\n        /* \"#utility.yul\":6236:6322   */\n      swap2\n      swap1\n      pop\n      jump\t// out\n        /* \"#utility.yul\":6328:6446   */\n    tag_127:\n        /* \"#utility.yul\":6399:6421   */\n      tag_220\n        /* \"#utility.yul\":6415:6420   */\n      dup2\n        /* \"#utility.yul\":6399:6421   */\n      tag_126\n      jump\t// in\n    tag_220:\n        /* \"#utility.yul\":6392:6397   */\n      dup2\n        /* \"#utility.yul\":6389:6422   */\n      eq\n        /* \"#utility.yul\":6379:6440   */\n      tag_221\n      jumpi\n        /* \"#utility.yul\":6436:6437   */\n      0x00\n        /* \"#utility.yul\":6433:6434   */\n      dup1\n        /* \"#utility.yul\":6426:6438   */\n      revert\n        /* \"#utility.yul\":6379:6440   */\n    tag_221:\n        /* \"#utility.yul\":6328:6446   */\n      pop\n      jump\t// out\n        /* \"#utility.yul\":6452:6587   */\n    tag_128:\n        /* \"#utility.yul\":6496:6501   */\n      0x00\n        /* \"#utility.yul\":6534:6540   */\n      dup2\n        /* \"#utility.yul\":6521:6541   */\n      calldataload\n        /* \"#utility.yul\":6512:6541   */\n      swap1\n      pop\n        /* \"#utility.yul\":6550:6581   */\n      tag_223\n        /* \"#utility.yul\":6575:6580   */\n      dup2\n        /* \"#utility.yul\":6550:6581   */\n      tag_127\n      jump\t// in\n    tag_223:\n        /* \"#utility.yul\":6452:6587   */\n      swap3\n      swap2\n      pop\n      pop\n      jump\t// out\n        /* \"#utility.yul\":6593:6918   */\n    tag_25:\n        /* \"#utility.yul\":6650:6656   */\n      0x00\n        /* \"#utility.yul\":6699:6701   */\n      0x20\n        /* \"#utility.yul\":6687:6696   */\n      dup3\n        /* \"#utility.yul\":6678:6685   */\n      dup5\n        /* \"#utility.yul\":6674:6697   */\n      sub\n        /* \"#utility.yul\":6670:6702   */\n      slt\n        /* \"#utility.yul\":6667:6786   */\n      iszero\n      tag_225\n      jumpi\n        /* \"#utility.yul\":6705:6784   */\n      tag_226\n      tag_104\n      jump\t// in\n    tag_226:\n        /* \"#utility.yul\":6667:6786   */\n    tag_225:\n        /* \"#utility.yul\":6825:6826   */\n      0x00\n        /* \"#utility.yul\":6850:6901   */\n      tag_227\n        /* \"#utility.yul\":6893:6900   */\n      dup5\n        /* \"#utility.yul\":6884:6890   */\n      dup3\n        /* \"#utility.yul\":6873:6882   */\n      dup6\n        /* \"#utility.yul\":6869:6891   */\n      add\n        /* \"#utility.yul\":6850:6901   */\n      tag_128\n      jump\t// in\n    tag_227:\n        /* \"#utility.yul\":6840:6901   */\n      swap2\n      pop\n        /* \"#utility.yul\":6796:6911   */\n      pop\n        /* \"#utility.yul\":6593:6918   */\n      swap3\n      swap2\n      pop\n      pop\n      jump\t// out\n        /* \"#utility.yul\":6924:7042   */\n    tag_129:\n        /* \"#utility.yul\":7011:7035   */\n      tag_229\n        /* \"#utility.yul\":7029:7034   */\n      dup2\n        /* \"#utility.yul\":7011:7035   */\n      tag_115\n      jump\t// in\n    tag_229:\n        /* \"#utility.yul\":7006:7009   */\n      dup3\n        /* \"#utility.yul\":6999:7036   */\n      mstore\n        /* \"#utility.yul\":6924:7042   */\n      pop\n      pop\n      jump\t// out\n        /* \"#utility.yul\":7048:7270   */\n    tag_30:\n        /* \"#utility.yul\":7141:7145   */\n      0x00\n        /* \"#utility.yul\":7179:7181   */\n      0x20\n        /* \"#utility.yul\":7168:7177   */\n      dup3\n        /* \"#utility.yul\":7164:7182   */\n      add\n        /* \"#utility.yul\":7156:7182   */\n      swap1\n      pop\n        /* \"#utility.yul\":7192:7263   */\n      tag_231\n        /* \"#utility.yul\":7260:7261   */\n      0x00\n        /* \"#utility.yul\":7249:7258   */\n      dup4\n        /* \"#utility.yul\":7245:7262   */\n      add\n        /* \"#utility.yul\":7236:7242   */\n      dup5\n        /* \"#utility.yul\":7192:7263   */\n      tag_129\n      jump\t// in\n    tag_231:\n        /* \"#utility.yul\":7048:7270   */\n      swap3\n      swap2\n      pop\n      pop\n      jump\t// out\n        /* \"#utility.yul\":7276:7605   */\n    tag_33:\n        /* \"#utility.yul\":7335:7341   */\n      0x00\n        /* \"#utility.yul\":7384:7386   */\n      0x20\n        /* \"#utility.yul\":7372:7381   */\n      dup3\n        /* \"#utility.yul\":7363:7370   */\n      dup5\n        /* \"#utility.yul\":7359:7382   */\n      sub\n        /* \"#utility.yul\":7355:7387   */\n      slt\n        /* \"#utility.yul\":7352:7471   */\n      iszero\n      tag_233\n      jumpi\n        /* \"#utility.yul\":7390:7469   */\n      tag_234\n      tag_104\n      jump\t// in\n    tag_234:\n        /* \"#utility.yul\":7352:7471   */\n    tag_233:\n        /* \"#utility.yul\":7510:7511   */\n      0x00\n        /* \"#utility.yul\":7535:7588   */\n      tag_235\n        /* \"#utility.yul\":7580:7587   */\n      dup5\n        /* \"#utility.yul\":7571:7577   */\n      dup3\n        /* \"#utility.yul\":7560:7569   */\n      dup6\n        /* \"#utility.yul\":7556:7578   */\n      add\n        /* \"#utility.yul\":7535:7588   */\n      tag_125\n      jump\t// in\n    tag_235:\n        /* \"#utility.yul\":7525:7588   */\n      swap2\n      pop\n        /* \"#utility.yul\":7481:7598   */\n      pop\n        /* \"#utility.yul\":7276:7605   */\n      swap3\n      swap2\n      pop\n      pop\n      jump\t// out\n        /* \"#utility.yul\":7611:7791   */\n    tag_130:\n        /* \"#utility.yul\":7659:7736   */\n      0x4e487b7100000000000000000000000000000000000000000000000000000000\n        /* \"#utility.yul\":7656:7657   */\n      0x00\n        /* \"#utility.yul\":7649:7737   */\n      mstore\n        /* \"#utility.yul\":7756:7760   */\n      0x22\n        /* \"#utility.yul\":7753:7754   */\n      0x04\n        /* \"#utility.yul\":7746:7761   */\n      mstore\n        /* \"#utility.yul\":7780:7784   */\n      0x24\n        /* \"#utility.yul\":7777:7778   */\n      0x00\n        /* \"#utility.yul\":7770:7785   */\n      revert\n        /* \"#utility.yul\":7797:8117   */\n    tag_45:\n        /* \"#utility.yul\":7841:7847   */\n      0x00\n        /* \"#utility.yul\":7878:7879   */\n      0x02\n        /* \"#utility.yul\":7872:7876   */\n      dup3\n        /* \"#utility.yul\":7868:7880   */\n      div\n        /* \"#utility.yul\":7858:7880   */\n      swap1\n      pop\n        /* \"#utility.yul\":7925:7926   */\n      0x01\n        /* \"#utility.yul\":7919:7923   */\n      dup3\n        /* \"#utility.yul\":7915:7927   */\n      and\n        /* \"#utility.yul\":7946:7964   */\n      dup1\n        /* \"#utility.yul\":7936:8017   */\n      tag_238\n      jumpi\n        /* \"#utility.yul\":8002:8006   */\n      0x7f\n        /* \"#utility.yul\":7994:8000   */\n      dup3\n        /* \"#utility.yul\":7990:8007   */\n      and\n        /* \"#utility.yul\":7980:8007   */\n      swap2\n      pop\n        /* \"#utility.yul\":7936:8017   */\n    tag_238:\n        /* \"#utility.yul\":8064:8066   */\n      0x20\n        /* \"#utility.yul\":8056:8062   */\n      dup3\n        /* \"#utility.yul\":8053:8067   */\n      lt\n        /* \"#utility.yul\":8033:8051   */\n      dup2\n        /* \"#utility.yul\":8030:8068   */\n      sub\n        /* \"#utility.yul\":8027:8111   */\n      tag_239\n      jumpi\n        /* \"#utility.yul\":8083:8101   */\n      tag_240\n      tag_130\n      jump\t// in\n    tag_240:\n        /* \"#utility.yul\":8027:8111   */\n    tag_239:\n        /* \"#utility.yul\":7848:8117   */\n      pop\n        /* \"#utility.yul\":7797:8117   */\n      swap2\n      swap1\n      pop\n      jump\t// out\n        /* \"#utility.yul\":8123:8303   */\n    tag_131:\n        /* \"#utility.yul\":8171:8248   */\n      0x4e487b7100000000000000000000000000000000000000000000000000000000\n        /* \"#utility.yul\":8168:8169   */\n      0x00\n        /* \"#utility.yul\":8161:8249   */\n      mstore\n        /* \"#utility.yul\":8268:8272   */\n      0x11\n        /* \"#utility.yul\":8265:8266   */\n      0x04\n        /* \"#utility.yul\":8258:8273   */\n      mstore\n        /* \"#utility.yul\":8292:8296   */\n      0x24\n        /* \"#utility.yul\":8289:8290   */\n      0x00\n        /* \"#utility.yul\":8282:8297   */\n      revert\n        /* \"#utility.yul\":8309:8500   */\n    tag_54:\n        /* \"#utility.yul\":8349:8352   */\n      0x00\n        /* \"#utility.yul\":8368:8388   */\n      tag_243\n        /* \"#utility.yul\":8386:8387   */\n      dup3\n        /* \"#utility.yul\":8368:8388   */\n      tag_115\n      jump\t// in\n    tag_243:\n        /* \"#utility.yul\":8363:8388   */\n      swap2\n      pop\n        /* \"#utility.yul\":8402:8422   */\n      tag_244\n        /* \"#utility.yul\":8420:8421   */\n      dup4\n        /* \"#utility.yul\":8402:8422   */\n      tag_115\n      jump\t// in\n    tag_244:\n        /* \"#utility.yul\":8397:8422   */\n      swap3\n      pop\n        /* \"#utility.yul\":8445:8446   */\n      dup3\n        /* \"#utility.yul\":8442:8443   */\n      dup3\n        /* \"#utility.yul\":8438:8447   */\n      add\n        /* \"#utility.yul\":8431:8447   */\n      swap1\n      pop\n        /* \"#utility.yul\":8466:8469   */\n      dup1\n        /* \"#utility.yul\":8463:8464   */\n      dup3\n        /* \"#utility.yul\":8460:8470   */\n      gt\n        /* \"#utility.yul\":8457:8493   */\n      iszero\n      tag_245\n      jumpi\n        /* \"#utility.yul\":8473:8491   */\n      tag_246\n      tag_131\n      jump\t// in\n    tag_246:\n        /* \"#utility.yul\":8457:8493   */\n    tag_245:\n        /* \"#utility.yul\":8309:8500   */\n      swap3\n      swap2\n      pop\n      pop\n      jump\t// out\n        /* \"#utility.yul\":8506:8686   */\n    tag_132:\n        /* \"#utility.yul\":8554:8631   */\n      0x4e487b7100000000000000000000000000000000000000000000000000000000\n        /* \"#utility.yul\":8551:8552   */\n      0x00\n        /* \"#utility.yul\":8544:8632   */\n      mstore\n        /* \"#utility.yul\":8651:8655   */\n      0x41\n        /* \"#utility.yul\":8648:8649   */\n      0x04\n        /* \"#utility.yul\":8641:8656   */\n      mstore\n        /* \"#utility.yul\":8675:8679   */\n      0x24\n        /* \"#utility.yul\":8672:8673   */\n      0x00\n        /* \"#utility.yul\":8665:8680   */\n      revert\n        /* \"#utility.yul\":8692:8833   */\n    tag_133:\n        /* \"#utility.yul\":8741:8745   */\n      0x00\n        /* \"#utility.yul\":8764:8767   */\n      dup2\n        /* \"#utility.yul\":8756:8767   */\n      swap1\n      pop\n        /* \"#utility.yul\":8787:8790   */\n      dup2\n        /* \"#utility.yul\":8784:8785   */\n      0x00\n        /* \"#utility.yul\":8777:8791   */\n      mstore\n        /* \"#utility.yul\":8821:8825   */\n      0x20\n        /* \"#utility.yul\":8818:8819   */\n      0x00\n        /* \"#utility.yul\":8808:8826   */\n      keccak256\n        /* \"#utility.yul\":8800:8826   */\n      swap1\n      pop\n        /* \"#utility.yul\":8692:8833   */\n      swap2\n      swap1\n      pop\n      jump\t// out\n        /* \"#utility.yul\":8839:8932   */\n    tag_134:\n        /* \"#utility.yul\":8876:8882   */\n      0x00\n        /* \"#utility.yul\":8923:8925   */\n      0x20\n        /* \"#utility.yul\":8918:8920   */\n      0x1f\n        /* \"#utility.yul\":8911:8916   */\n      dup4\n        /* \"#utility.yul\":8907:8921   */\n      add\n        /* \"#utility.yul\":8903:8926   */\n      div\n        /* \"#utility.yul\":8893:8926   */\n      swap1\n      pop\n        /* \"#utility.yul\":8839:8932   */\n      swap2\n      swap1\n      pop\n      jump\t// out\n        /* \"#utility.yul\":8938:9045   */\n    tag_135:\n        /* \"#utility.yul\":8982:8990   */\n      0x00\n        /* \"#utility.yul\":9032:9037   */\n      dup3\n        /* \"#utility.yul\":9026:9030   */\n      dup3\n        /* \"#utility.yul\":9022:9038   */\n      shl\n        /* \"#utility.yul\":9001:9038   */\n      swap1\n      pop\n        /* \"#utility.yul\":8938:9045   */\n      swap3\n      swap2\n      pop\n      pop\n      jump\t// out\n        /* \"#utility.yul\":9051:9444   */\n    tag_136:\n        /* \"#utility.yul\":9120:9126   */\n      0x00\n        /* \"#utility.yul\":9170:9171   */\n      0x08\n        /* \"#utility.yul\":9158:9168   */\n      dup4\n        /* \"#utility.yul\":9154:9172   */\n      mul\n        /* \"#utility.yul\":9193:9290   */\n      tag_252\n        /* \"#utility.yul\":9223:9289   */\n      0xffffffffffffffffffffffffffffffffffffffffffffffffffffffffffffffff\n        /* \"#utility.yul\":9212:9221   */\n      dup3\n        /* \"#utility.yul\":9193:9290   */\n      tag_135\n      jump\t// in\n    tag_252:\n        /* \"#utility.yul\":9311:9350   */\n      tag_253\n        /* \"#utility.yul\":9341:9349   */\n      dup7\n        /* \"#utility.yul\":9330:9339   */\n      dup4\n        /* \"#utility.yul\":9311:9350   */\n      tag_135\n      jump\t// in\n    tag_253:\n        /* \"#utility.yul\":9299:9350   */\n      swap6\n      pop\n        /* \"#utility.yul\":9383:9387   */\n      dup1\n        /* \"#utility.yul\":9379:9388   */\n      not\n        /* \"#utility.yul\":9372:9377   */\n      dup5\n        /* \"#utility.yul\":9368:9389   */\n      and\n        /* \"#utility.yul\":9359:9389   */\n      swap4\n      pop\n        /* \"#utility.yul\":9432:9436   */\n      dup1\n        /* \"#utility.yul\":9422:9430   */\n      dup7\n        /* \"#utility.yul\":9418:9437   */\n      and\n        /* \"#utility.yul\":9411:9416   */\n      dup5\n        /* \"#utility.yul\":9408:9438   */\n      or\n        /* \"#utility.yul\":9398:9438   */\n      swap3\n      pop\n        /* \"#utility.yul\":9127:9444   */\n      pop\n      pop\n        /* \"#utility.yul\":9051:9444   */\n      swap4\n      swap3\n      pop\n      pop\n      pop\n      jump\t// out\n        /* \"#utility.yul\":9450:9510   */\n    tag_137:\n        /* \"#utility.yul\":9478:9481   */\n      0x00\n        /* \"#utility.yul\":9499:9504   */\n      dup2\n        /* \"#utility.yul\":9492:9504   */\n      swap1\n      pop\n        /* \"#utility.yul\":9450:9510   */\n      swap2\n      swap1\n      pop\n      jump\t// out\n        /* \"#utility.yul\":9516:9658   */\n    tag_138:\n        /* \"#utility.yul\":9566:9575   */\n      0x00\n        /* \"#utility.yul\":9599:9652   */\n      tag_256\n        /* \"#utility.yul\":9617:9651   */\n      tag_257\n        /* \"#utility.yul\":9626:9650   */\n      tag_258\n        /* \"#utility.yul\":9644:9649   */\n      dup5\n        /* \"#utility.yul\":9626:9650   */\n      tag_115\n      jump\t// in\n    tag_258:\n        /* \"#utility.yul\":9617:9651   */\n      tag_137\n      jump\t// in\n    tag_257:\n        /* \"#utility.yul\":9599:9652   */\n      tag_115\n      jump\t// in\n    tag_256:\n        /* \"#utility.yul\":9586:9652   */\n      swap1\n      pop\n        /* \"#utility.yul\":9516:9658   */\n      swap2\n      swap1\n      pop\n      jump\t// out\n        /* \"#utility.yul\":9664:9739   */\n    tag_139:\n        /* \"#utility.yul\":9707:9710   */\n      0x00\n        /* \"#utility.yul\":9728:9733   */\n      dup2\n        /* \"#utility.yul\":9721:9733   */\n      swap1\n      pop\n        /* \"#utility.yul\":9664:9739   */\n      swap2\n      swap1\n      pop\n      jump\t// out\n        /* \"#utility.yul\":9745:10014   */\n    tag_140:\n        /* \"#utility.yul\":9855:9894   */\n      tag_261\n        /* \"#utility.yul\":9886:9893   */\n      dup4\n        /* \"#utility.yul\":9855:9894   */\n      tag_138\n      jump\t// in\n    tag_261:\n        /* \"#utility.yul\":9916:10007   */\n      tag_262\n        /* \"#utility.yul\":9965:10006   */\n      tag_263\n        /* \"#utility.yul\":9989:10005   */\n      dup3\n        /* \"#utility.yul\":9965:10006   */\n      tag_139\n      jump\t// in\n    tag_263:\n        /* \"#utility.yul\":9957:9963   */\n      dup5\n        /* \"#utility.yul\":9950:9954   */\n      dup5\n        /* \"#utility.yul\":9944:9955   */\n      sload\n        /* \"#utility.yul\":9916:10007   */\n      tag_136\n      jump\t// in\n    tag_262:\n        /* \"#utility.yul\":9910:9914   */\n      dup3\n        /* \"#utility.yul\":9903:10008   */\n      sstore\n        /* \"#utility.yul\":9821:10014   */\n      pop\n        /* \"#utility.yul\":9745:10014   */\n      pop\n      pop\n      pop\n      jump\t// out\n        /* \"#utility.yul\":10020:10093   */\n    tag_141:\n        /* \"#utility.yul\":10065:10068   */\n      0x00\n        /* \"#utility.yul\":10020:10093   */\n      swap1\n      jump\t// out\n        /* \"#utility.yul\":10099:10288   */\n    tag_142:\n        /* \"#utility.yul\":10176:10208   */\n      tag_266\n      tag_141\n      jump\t// in\n    tag_266:\n        /* \"#utility.yul\":10217:10282   */\n      tag_267\n        /* \"#utility.yul\":10275:10281   */\n      dup2\n        /* \"#utility.yul\":10267:10273   */\n      dup5\n        /* \"#utility.yul\":10261:10265   */\n      dup5\n        /* \"#utility.yul\":10217:10282   */\n      tag_140\n      jump\t// in\n    tag_267:\n        /* \"#utility.yul\":10152:10288   */\n      pop\n        /* \"#utility.yul\":10099:10288   */\n      pop\n      pop\n      jump\t// out\n        /* \"#utility.yul\":10294:10480   */\n    tag_143:\n        /* \"#utility.yul\":10354:10474   */\n    tag_269:\n        /* \"#utility.yul\":10371:10374   */\n      dup2\n        /* \"#utility.yul\":10364:10369   */\n      dup2\n        /* \"#utility.yul\":10361:10375   */\n      lt\n        /* \"#utility.yul\":10354:10474   */\n      iszero\n      tag_271\n      jumpi\n        /* \"#utility.yul\":10425:10464   */\n      tag_272\n        /* \"#utility.yul\":10462:10463   */\n      0x00\n        /* \"#utility.yul\":10455:10460   */\n      dup3\n        /* \"#utility.yul\":10425:10464   */\n      tag_142\n      jump\t// in\n    tag_272:\n        /* \"#utility.yul\":10398:10399   */\n      0x01\n        /* \"#utility.yul\":10391:10396   */\n      dup2\n        /* \"#utility.yul\":10387:10400   */\n      add\n        /* \"#utility.yul\":10378:10400   */\n      swap1\n      pop\n        /* \"#utility.yul\":10354:10474   */\n      jump(tag_269)\n    tag_271:\n        /* \"#utility.yul\":10294:10480   */\n      pop\n      pop\n      jump\t// out\n        /* \"#utility.yul\":10486:11029   */\n    tag_144:\n        /* \"#utility.yul\":10587:10589   */\n      0x1f\n        /* \"#utility.yul\":10582:10585   */\n      dup3\n        /* \"#utility.yul\":10579:10590   */\n      gt\n        /* \"#utility.yul\":10576:11022   */\n      iszero\n      tag_274\n      jumpi\n        /* \"#utility.yul\":10621:10659   */\n      tag_275\n        /* \"#utility.yul\":10653:10658   */\n      dup2\n        /* \"#utility.yul\":10621:10659   */\n      tag_133\n      jump\t// in\n    tag_275:\n        /* \"#utility.yul\":10705:10734   */\n      tag_276\n        /* \"#utility.yul\":10723:10733   */\n      dup5\n        /* \"#utility.yul\":10705:10734   */\n      tag_134\n      jump\t// in\n    tag_276:\n        /* \"#utility.yul\":10695:10703   */\n      dup2\n        /* \"#utility.yul\":10691:10735   */\n      add\n        /* \"#utility.yul\":10888:10890   */\n      0x20\n        /* \"#utility.yul\":10876:10886   */\n      dup6\n        /* \"#utility.yul\":10873:10891   */\n      lt\n        /* \"#utility.yul\":10870:10919   */\n      iszero\n      tag_277\n      jumpi\n        /* \"#utility.yul\":10909:10917   */\n      dup2\n        /* \"#utility.yul\":10894:10917   */\n      swap1\n      pop\n        /* \"#utility.yul\":10870:10919   */\n    tag_277:\n        /* \"#utility.yul\":10932:11012   */\n      tag_278\n        /* \"#utility.yul\":10988:11010   */\n      tag_279\n        /* \"#utility.yul\":11006:11009   */\n      dup6\n        /* \"#utility.yul\":10988:11010   */\n      tag_134\n      jump\t// in\n    tag_279:\n        /* \"#utility.yul\":10978:10986   */\n      dup4\n        /* \"#utility.yul\":10974:11011   */\n      add\n        /* \"#utility.yul\":10961:10972   */\n      dup3\n        /* \"#utility.yul\":10932:11012   */\n      tag_143\n      jump\t// in\n    tag_278:\n        /* \"#utility.yul\":10591:11022   */\n      pop\n      pop\n        /* \"#utility.yul\":10576:11022   */\n    tag_274:\n        /* \"#utility.yul\":10486:11029   */\n      pop\n      pop\n      pop\n      jump\t// out\n        /* \"#utility.yul\":11035:11152   */\n    tag_145:\n        /* \"#utility.yul\":11089:11097   */\n      0x00\n        /* \"#utility.yul\":11139:11144   */\n      dup3\n        /* \"#utility.yul\":11133:11137   */\n      dup3\n        /* \"#utility.yul\":11129:11145   */\n      shr\n        /* \"#utility.yul\":11108:11145   */\n      swap1\n      pop\n        /* \"#utility.yul\":11035:11152   */\n      swap3\n      swap2\n      pop\n      pop\n      jump\t// out\n        /* \"#utility.yul\":11158:11327   */\n    tag_146:\n        /* \"#utility.yul\":11202:11208   */\n      0x00\n        /* \"#utility.yul\":11235:11286   */\n      tag_282\n        /* \"#utility.yul\":11283:11284   */\n      0x00\n        /* \"#utility.yul\":11279:11285   */\n      not\n        /* \"#utility.yul\":11271:11276   */\n      dup5\n        /* \"#utility.yul\":11268:11269   */\n      0x08\n        /* \"#utility.yul\":11264:11277   */\n      mul\n        /* \"#utility.yul\":11235:11286   */\n      tag_145\n      jump\t// in\n    tag_282:\n        /* \"#utility.yul\":11231:11287   */\n      not\n        /* \"#utility.yul\":11316:11320   */\n      dup1\n        /* \"#utility.yul\":11310:11314   */\n      dup4\n        /* \"#utility.yul\":11306:11321   */\n      and\n        /* \"#utility.yul\":11296:11321   */\n      swap2\n      pop\n        /* \"#utility.yul\":11209:11327   */\n      pop\n        /* \"#utility.yul\":11158:11327   */\n      swap3\n      swap2\n      pop\n      pop\n      jump\t// out\n        /* \"#utility.yul\":11332:11627   */\n    tag_147:\n        /* \"#utility.yul\":11408:11412   */\n      0x00\n        /* \"#utility.yul\":11554:11583   */\n      tag_284\n        /* \"#utility.yul\":11579:11582   */\n      dup4\n        /* \"#utility.yul\":11573:11577   */\n      dup4\n        /* \"#utility.yul\":11554:11583   */\n      tag_146\n      jump\t// in\n    tag_284:\n        /* \"#utility.yul\":11546:11583   */\n      swap2\n      pop\n        /* \"#utility.yul\":11616:11619   */\n      dup3\n        /* \"#utility.yul\":11613:11614   */\n      0x02\n        /* \"#utility.yul\":11609:11620   */\n      mul\n        /* \"#utility.yul\":11603:11607   */\n      dup3\n        /* \"#utility.yul\":11600:11621   */\n      or\n        /* \"#utility.yul\":11592:11621   */\n      swap1\n      pop\n        /* \"#utility.yul\":11332:11627   */\n      swap3\n      swap2\n      pop\n      pop\n      jump\t// out\n        /* \"#utility.yul\":11632:13027   */\n    tag_56:\n        /* \"#utility.yul\":11749:11786   */\n      tag_286\n        /* \"#utility.yul\":11782:11785   */\n      dup3\n        /* \"#utility.yul\":11749:11786   */\n      tag_110\n      jump\t// in\n    tag_286:\n        /* \"#utility.yul\":11851:11869   */\n      0xffffffffffffffff\n        /* \"#utility.yul\":11843:11849   */\n      dup2\n        /* \"#utility.yul\":11840:11870   */\n      gt\n        /* \"#utility.yul\":11837:11893   */\n      iszero\n      tag_287\n      jumpi\n        /* \"#utility.yul\":11873:11891   */\n      tag_288\n      tag_132\n      jump\t// in\n    tag_288:\n        /* \"#utility.yul\":11837:11893   */\n    tag_287:\n        /* \"#utility.yul\":11917:11955   */\n      tag_289\n        /* \"#utility.yul\":11949:11953   */\n      dup3\n        /* \"#utility.yul\":11943:11954   */\n      sload\n        /* \"#utility.yul\":11917:11955   */\n      tag_45\n      jump\t// in\n    tag_289:\n        /* \"#utility.yul\":12002:12069   */\n      tag_290\n        /* \"#utility.yul\":12062:12068   */\n      dup3\n        /* \"#utility.yul\":12054:12060   */\n      dup3\n        /* \"#utility.yul\":12048:12052   */\n      dup6\n        /* \"#utility.yul\":12002:12069   */\n      tag_144\n      jump\t// in\n    tag_290:\n        /* \"#utility.yul\":12096:12097   */\n      0x00\n        /* \"#utility.yul\":12120:12124   */\n      0x20\n        /* \"#utility.yul\":12107:12124   */\n      swap1\n      pop\n        /* \"#utility.yul\":12152:12154   */\n      0x1f\n        /* \"#utility.yul\":12144:12150   */\n      dup4\n        /* \"#utility.yul\":12141:12155   */\n      gt\n        /* \"#utility.yul\":12169:12170   */\n      0x01\n        /* \"#utility.yul\":12164:12782   */\n      dup2\n      eq\n      tag_292\n      jumpi\n        /* \"#utility.yul\":12826:12827   */\n      0x00\n        /* \"#utility.yul\":12843:12849   */\n      dup5\n        /* \"#utility.yul\":12840:12917   */\n      iszero\n      tag_293\n      jumpi\n        /* \"#utility.yul\":12892:12901   */\n      dup3\n        /* \"#utility.yul\":12887:12890   */\n      dup8\n        /* \"#utility.yul\":12883:12902   */\n      add\n        /* \"#utility.yul\":12877:12903   */\n      mload\n        /* \"#utility.yul\":12868:12903   */\n      swap1\n      pop\n        /* \"#utility.yul\":12840:12917   */\n    tag_293:\n        /* \"#utility.yul\":12943:13010   */\n      tag_294\n        /* \"#utility.yul\":13003:13009   */\n      dup6\n        /* \"#utility.yul\":12996:13001   */\n      dup3\n        /* \"#utility.yul\":12943:13010   */\n      tag_147\n      jump\t// in\n    tag_294:\n        /* \"#utility.yul\":12937:12941   */\n      dup7\n        /* \"#utility.yul\":12930:13011   */\n      sstore\n        /* \"#utility.yul\":12799:13021   */\n      pop\n        /* \"#utility.yul\":12134:13021   */\n      jump(tag_291)\n        /* \"#utility.yul\":12164:12782   */\n    tag_292:\n        /* \"#utility.yul\":12216:12220   */\n      0x1f\n        /* \"#utility.yul\":12212:12221   */\n      not\n        /* \"#utility.yul\":12204:12210   */\n      dup5\n        /* \"#utility.yul\":12200:12222   */\n      and\n        /* \"#utility.yul\":12250:12287   */\n      tag_295\n        /* \"#utility.yul\":12282:12286   */\n      dup7\n        /* \"#utility.yul\":12250:12287   */\n      tag_133\n      jump\t// in\n    tag_295:\n        /* \"#utility.yul\":12309:12310   */\n      0x00\n        /* \"#utility.yul\":12323:12531   */\n    tag_296:\n        /* \"#utility.yul\":12337:12344   */\n      dup3\n        /* \"#utility.yul\":12334:12335   */\n      dup2\n        /* \"#utility.yul\":12331:12345   */\n      lt\n        /* \"#utility.yul\":12323:12531   */\n      iszero\n      tag_298\n      jumpi\n        /* \"#utility.yul\":12416:12425   */\n      dup5\n        /* \"#utility.yul\":12411:12414   */\n      dup10\n        /* \"#utility.yul\":12407:12426   */\n      add\n        /* \"#utility.yul\":12401:12427   */\n      mload\n        /* \"#utility.yul\":12393:12399   */\n      dup3\n        /* \"#utility.yul\":12386:12428   */\n      sstore\n        /* \"#utility.yul\":12467:12468   */\n      0x01\n        /* \"#utility.yul\":12459:12465   */\n      dup3\n        /* \"#utility.yul\":12455:12469   */\n      add\n        /* \"#utility.yul\":12445:12469   */\n      swap2\n      pop\n        /* \"#utility.yul\":12514:12516   */\n      0x20\n        /* \"#utility.yul\":12503:12512   */\n      dup6\n        /* \"#utility.yul\":12499:12517   */\n      add\n        /* \"#utility.yul\":12486:12517   */\n      swap5\n      pop\n        /* \"#utility.yul\":12360:12364   */\n      0x20\n        /* \"#utility.yul\":12357:12358   */\n      dup2\n        /* \"#utility.yul\":12353:12365   */\n      add\n        /* \"#utility.yul\":12348:12365   */\n      swap1\n      pop\n        /* \"#utility.yul\":12323:12531   */\n      jump(tag_296)\n    tag_298:\n        /* \"#utility.yul\":12559:12565   */\n      dup7\n        /* \"#utility.yul\":12550:12557   */\n      dup4\n        /* \"#utility.yul\":12547:12566   */\n      lt\n        /* \"#utility.yul\":12544:12723   */\n      iszero\n      tag_299\n      jumpi\n        /* \"#utility.yul\":12617:12626   */\n      dup5\n        /* \"#utility.yul\":12612:12615   */\n      dup10\n        /* \"#utility.yul\":12608:12627   */\n      add\n        /* \"#utility.yul\":12602:12628   */\n      mload\n        /* \"#utility.yul\":12660:12708   */\n      tag_300\n        /* \"#utility.yul\":12702:12706   */\n      0x1f\n        /* \"#utility.yul\":12694:12700   */\n      dup10\n        /* \"#utility.yul\":12690:12707   */\n      and\n        /* \"#utility.yul\":12679:12688   */\n      dup3\n        /* \"#utility.yul\":12660:12708   */\n      tag_146\n      jump\t// in\n    tag_300:\n        /* \"#utility.yul\":12652:12658   */\n      dup4\n        /* \"#utility.yul\":12645:12709   */\n      sstore\n        /* \"#utility.yul\":12567:12723   */\n      pop\n        /* \"#utility.yul\":12544:12723   */\n    tag_299:\n        /* \"#utility.yul\":12769:12770   */\n      0x01\n        /* \"#utility.yul\":12765:12766   */\n      0x02\n        /* \"#utility.yul\":12757:12763   */\n      dup9\n        /* \"#utility.yul\":12753:12767   */\n      mul\n        /* \"#utility.yul\":12749:12771   */\n      add\n        /* \"#utility.yul\":12743:12747   */\n      dup9\n        /* \"#utility.yul\":12736:12772   */\n      sstore\n        /* \"#utility.yul\":12171:12782   */\n      pop\n      pop\n      pop\n        /* \"#utility.yul\":12134:13021   */\n    tag_291:\n      pop\n        /* \"#utility.yul\":11724:13027   */\n      pop\n      pop\n      pop\n        /* \"#utility.yul\":11632:13027   */\n      pop\n      pop\n      jump\t// out\n        /* \"#utility.yul\":13033:13202   */\n    tag_148:\n        /* \"#utility.yul\":13117:13128   */\n      0x00\n        /* \"#utility.yul\":13151:13157   */\n      dup3\n        /* \"#utility.yul\":13146:13149   */\n      dup3\n        /* \"#utility.yul\":13139:13158   */\n      mstore\n        /* \"#utility.yul\":13191:13195   */\n      0x20\n        /* \"#utility.yul\":13186:13189   */\n      dup3\n        /* \"#utility.yul\":13182:13196   */\n      add\n        /* \"#utility.yul\":13167:13196   */\n      swap1\n      pop\n        /* \"#utility.yul\":13033:13202   */\n      swap3\n      swap2\n      pop\n      pop\n      jump\t// out\n        /* \"#utility.yul\":13208:13384   */\n    tag_149:\n        /* \"#utility.yul\":13348:13376   */\n      0x416464726573732068617320616c726561647920766f7465642e000000000000\n        /* \"#utility.yul\":13344:13345   */\n      0x00\n        /* \"#utility.yul\":13336:13342   */\n      dup3\n        /* \"#utility.yul\":13332:13346   */\n      add\n        /* \"#utility.yul\":13325:13377   */\n      mstore\n        /* \"#utility.yul\":13208:13384   */\n      pop\n      jump\t// out\n        /* \"#utility.yul\":13390:13756   */\n    tag_150:\n        /* \"#utility.yul\":13532:13535   */\n      0x00\n        /* \"#utility.yul\":13553:13620   */\n      tag_304\n        /* \"#utility.yul\":13617:13619   */\n      0x1a\n        /* \"#utility.yul\":13612:13615   */\n      dup4\n        /* \"#utility.yul\":13553:13620   */\n      tag_148\n      jump\t// in\n    tag_304:\n        /* \"#utility.yul\":13546:13620   */\n      swap2\n      pop\n        /* \"#utility.yul\":13629:13722   */\n      tag_305\n        /* \"#utility.yul\":13718:13721   */\n      dup3\n        /* \"#utility.yul\":13629:13722   */\n      tag_149\n      jump\t// in\n    tag_305:\n        /* \"#utility.yul\":13747:13749   */\n      0x20\n        /* \"#utility.yul\":13742:13745   */\n      dup3\n        /* \"#utility.yul\":13738:13750   */\n      add\n        /* \"#utility.yul\":13731:13750   */\n      swap1\n      pop\n        /* \"#utility.yul\":13390:13756   */\n      swap2\n      swap1\n      pop\n      jump\t// out\n        /* \"#utility.yul\":13762:14181   */\n    tag_62:\n        /* \"#utility.yul\":13928:13932   */\n      0x00\n        /* \"#utility.yul\":13966:13968   */\n      0x20\n        /* \"#utility.yul\":13955:13964   */\n      dup3\n        /* \"#utility.yul\":13951:13969   */\n      add\n        /* \"#utility.yul\":13943:13969   */\n      swap1\n      pop\n        /* \"#utility.yul\":14015:14024   */\n      dup2\n        /* \"#utility.yul\":14009:14013   */\n      dup2\n        /* \"#utility.yul\":14005:14025   */\n      sub\n        /* \"#utility.yul\":14001:14002   */\n      0x00\n        /* \"#utility.yul\":13990:13999   */\n      dup4\n        /* \"#utility.yul\":13986:14003   */\n      add\n        /* \"#utility.yul\":13979:14026   */\n      mstore\n        /* \"#utility.yul\":14043:14174   */\n      tag_307\n        /* \"#utility.yul\":14169:14173   */\n      dup2\n        /* \"#utility.yul\":14043:14174   */\n      tag_150\n      jump\t// in\n    tag_307:\n        /* \"#utility.yul\":14035:14174   */\n      swap1\n      pop\n        /* \"#utility.yul\":13762:14181   */\n      swap2\n      swap1\n      pop\n      jump\t// out\n        /* \"#utility.yul\":14187:14356   */\n    tag_151:\n        /* \"#utility.yul\":14327:14348   */\n      0x566f7465206c696d697420726561636865642100000000000000000000000000\n        /* \"#utility.yul\":14323:14324   */\n      0x00\n        /* \"#utility.yul\":14315:14321   */\n      dup3\n        /* \"#utility.yul\":14311:14325   */\n      add\n        /* \"#utility.yul\":14304:14349   */\n      mstore\n        /* \"#utility.yul\":14187:14356   */\n      pop\n      jump\t// out\n        /* \"#utility.yul\":14362:14728   */\n    tag_152:\n        /* \"#utility.yul\":14504:14507   */\n      0x00\n        /* \"#utility.yul\":14525:14592   */\n      tag_310\n        /* \"#utility.yul\":14589:14591   */\n      0x13\n        /* \"#utility.yul\":14584:14587   */\n      dup4\n        /* \"#utility.yul\":14525:14592   */\n      tag_148\n      jump\t// in\n    tag_310:\n        /* \"#utility.yul\":14518:14592   */\n      swap2\n      pop\n        /* \"#utility.yul\":14601:14694   */\n      tag_311\n        /* \"#utility.yul\":14690:14693   */\n      dup3\n        /* \"#utility.yul\":14601:14694   */\n      tag_151\n      jump\t// in\n    tag_311:\n        /* \"#utility.yul\":14719:14721   */\n      0x20\n        /* \"#utility.yul\":14714:14717   */\n      dup3\n        /* \"#utility.yul\":14710:14722   */\n      add\n        /* \"#utility.yul\":14703:14722   */\n      swap1\n      pop\n        /* \"#utility.yul\":14362:14728   */\n      swap2\n      swap1\n      pop\n      jump\t// out\n        /* \"#utility.yul\":14734:15153   */\n    tag_68:\n        /* \"#utility.yul\":14900:14904   */\n      0x00\n        /* \"#utility.yul\":14938:14940   */\n      0x20\n        /* \"#utility.yul\":14927:14936   */\n      dup3\n        /* \"#utility.yul\":14923:14941   */\n      add\n        /* \"#utility.yul\":14915:14941   */\n      swap1\n      pop\n        /* \"#utility.yul\":14987:14996   */\n      dup2\n        /* \"#utility.yul\":14981:14985   */\n      dup2\n        /* \"#utility.yul\":14977:14997   */\n      sub\n        /* \"#utility.yul\":14973:14974   */\n      0x00\n        /* \"#utility.yul\":14962:14971   */\n      dup4\n        /* \"#utility.yul\":14958:14975   */\n      add\n        /* \"#utility.yul\":14951:14998   */\n      mstore\n        /* \"#utility.yul\":15015:15146   */\n      tag_313\n        /* \"#utility.yul\":15141:15145   */\n      dup2\n        /* \"#utility.yul\":15015:15146   */\n      tag_152\n      jump\t// in\n    tag_313:\n        /* \"#utility.yul\":15007:15146   */\n      swap1\n      pop\n        /* \"#utility.yul\":14734:15153   */\n      swap2\n      swap1\n      pop\n      jump\t// out\n        /* \"#utility.yul\":15159:15353   */\n    tag_80:\n        /* \"#utility.yul\":15199:15203   */\n      0x00\n        /* \"#utility.yul\":15219:15239   */\n      tag_315\n        /* \"#utility.yul\":15237:15238   */\n      dup3\n        /* \"#utility.yul\":15219:15239   */\n      tag_115\n      jump\t// in\n    tag_315:\n        /* \"#utility.yul\":15214:15239   */\n      swap2\n      pop\n        /* \"#utility.yul\":15253:15273   */\n      tag_316\n        /* \"#utility.yul\":15271:15272   */\n      dup4\n        /* \"#utility.yul\":15253:15273   */\n      tag_115\n      jump\t// in\n    tag_316:\n        /* \"#utility.yul\":15248:15273   */\n      swap3\n      pop\n        /* \"#utility.yul\":15297:15298   */\n      dup3\n        /* \"#utility.yul\":15294:15295   */\n      dup3\n        /* \"#utility.yul\":15290:15299   */\n      sub\n        /* \"#utility.yul\":15282:15299   */\n      swap1\n      pop\n        /* \"#utility.yul\":15321:15322   */\n      dup2\n        /* \"#utility.yul\":15315:15319   */\n      dup2\n        /* \"#utility.yul\":15312:15323   */\n      gt\n        /* \"#utility.yul\":15309:15346   */\n      iszero\n      tag_317\n      jumpi\n        /* \"#utility.yul\":15326:15344   */\n      tag_318\n      tag_131\n      jump\t// in\n    tag_318:\n        /* \"#utility.yul\":15309:15346   */\n    tag_317:\n        /* \"#utility.yul\":15159:15353   */\n      swap3\n      swap2\n      pop\n      pop\n      jump\t// out\n\n    auxdata: 0xa2646970667358221220f4388230ddaf3de3f376307360302553123c2525d86bfd9cb95a44c46870ae0664736f6c63430008180033\n}\n",
				"bytecode": {
					"linkReferences": {},
					"object": "608060405234801561000f575f80fd5b50335f806101000a81548173ffffffffffffffffffffffffffffffffffffffff021916908373ffffffffffffffffffffffffffffffffffffffff1602179055506110f18061005c5f395ff3fe608060405234801561000f575f80fd5b506004361061007b575f3560e01c8063b3f98adc11610059578063b3f98adc146100d5578063c500d240146100f1578063c7f758a81461010f578063dbddc7aa1461013f5761007b565b806313af40351461007f57806341ec68701461009b57806346f81a87146100b9575b5f80fd5b61009960048036038101906100949190610929565b610149565b005b6100a36101e1565b6040516100b09190610a96565b60405180910390f35b6100d360048036038101906100ce9190610b41565b6102dd565b005b6100ef60048036038101906100ea9190610bd4565b610434565b005b6100f961061e565b6040516101069190610c0e565b60405180910390f35b61012960048036038101906101249190610c27565b61067d565b6040516101369190610a96565b60405180910390f35b610147610779565b005b5f8054906101000a900473ffffffffffffffffffffffffffffffffffffffff1673ffffffffffffffffffffffffffffffffffffffff163373ffffffffffffffffffffffffffffffffffffffff161461019f575f80fd5b805f806101000a81548173ffffffffffffffffffffffffffffffffffffffff021916908373ffffffffffffffffffffffffffffffffffffffff16021790555050565b6101e9610894565b60025f60015481526020019081526020015f206040518060c00160405290815f8201805461021690610c7f565b80601f016020809104026020016040519081016040528092919081815260200182805461024290610c7f565b801561028d5780601f106102645761010080835404028352916020019161028d565b820191905f5260205f20905b81548152906001019060200180831161027057829003601f168201915b5050505050815260200160018201548152602001600282015481526020016003820154815260200160048201548152602001600582015f9054906101000a900460ff161515151581525050905090565b5f8054906101000a900473ffffffffffffffffffffffffffffffffffffffff1673ffffffffffffffffffffffffffffffffffffffff163373ffffffffffffffffffffffffffffffffffffffff1614610333575f80fd5b6001805f8282546103449190610cdc565b925050819055506040518060c0016040528084848080601f0160208091040260200160405190810160405280939291908181526020018383808284375f81840152601f19601f8201169050808301925050505050505081526020015f81526020015f81526020015f81526020018281526020016001151581525060025f60015481526020019081526020015f205f820151815f0190816103e49190610ed9565b506020820151816001015560408201518160020155606082015181600301556080820151816004015560a0820151816005015f6101000a81548160ff021916908315150217905550905050505050565b6001151560025f60015481526020019081526020015f206005015f9054906101000a900460ff16151514610466575f80fd5b60035f3373ffffffffffffffffffffffffffffffffffffffff1673ffffffffffffffffffffffffffffffffffffffff1681526020019081526020015f205f9054906101000a900460ff16156104f0576040517f08c379a00000000000000000000000000000000000000000000000000000000081526004016104e790611002565b60405180910390fd5b60025f60015481526020019081526020015f2061050c81610830565b61054b576040517f08c379a00000000000000000000000000000000000000000000000000000000081526004016105429061106a565b60405180910390fd5b5f60025f60015481526020019081526020015f20905060018360ff160361058c576001816001015f8282546105809190610cdc565b925050819055506105df565b60028360ff16036105b7576001816002015f8282546105ab9190610cdc565b925050819055506105de565b5f8360ff16036105dd576001816003015f8282546105d59190610cdc565b925050819055505b5b5b60016105e961061e565b82600401546105f89190611088565b03610619575f816005015f6101000a81548160ff0219169083151502179055505b505050565b5f60025f60015481526020019081526020015f206003015460025f60015481526020019081526020015f206002015460025f60015481526020019081526020015f206001015461066e9190610cdc565b6106789190610cdc565b905090565b610685610894565b60025f8381526020019081526020015f206040518060c00160405290815f820180546106b090610c7f565b80601f01602080910402602001604051908101604052809291908181526020018280546106dc90610c7f565b80156107275780601f106106fe57610100808354040283529160200191610727565b820191905f5260205f20905b81548152906001019060200180831161070a57829003601f168201915b5050505050815260200160018201548152602001600282015481526020016003820154815260200160048201548152602001600582015f9054906101000a900460ff1615151515815250509050919050565b5f8054906101000a900473ffffffffffffffffffffffffffffffffffffffff1673ffffffffffffffffffffffffffffffffffffffff163373ffffffffffffffffffffffffffffffffffffffff16146107cf575f80fd5b6001151560025f60015481526020019081526020015f206005015f9054906101000a900460ff16151514610801575f80fd5b5f60025f60015481526020019081526020015f206005015f6101000a81548160ff021916908315150217905550565b5f80826001015490505f836002015490505f846003015490505f60018284866108599190610cdc565b6108639190610cdc565b901c905081836108739190610cdc565b81111561088757600194505050505061088f565b5f9450505050505b919050565b6040518060c00160405280606081526020015f81526020015f81526020015f81526020015f81526020015f151581525090565b5f80fd5b5f80fd5b5f73ffffffffffffffffffffffffffffffffffffffff82169050919050565b5f6108f8826108cf565b9050919050565b610908816108ee565b8114610912575f80fd5b50565b5f81359050610923816108ff565b92915050565b5f6020828403121561093e5761093d6108c7565b5b5f61094b84828501610915565b91505092915050565b5f81519050919050565b5f82825260208201905092915050565b5f5b8381101561098b578082015181840152602081019050610970565b5f8484015250505050565b5f601f19601f8301169050919050565b5f6109b082610954565b6109ba818561095e565b93506109ca81856020860161096e565b6109d381610996565b840191505092915050565b5f819050919050565b6109f0816109de565b82525050565b5f8115159050919050565b610a0a816109f6565b82525050565b5f60c083015f8301518482035f860152610a2a82826109a6565b9150506020830151610a3f60208601826109e7565b506040830151610a5260408601826109e7565b506060830151610a6560608601826109e7565b506080830151610a7860808601826109e7565b5060a0830151610a8b60a0860182610a01565b508091505092915050565b5f6020820190508181035f830152610aae8184610a10565b905092915050565b5f80fd5b5f80fd5b5f80fd5b5f8083601f840112610ad757610ad6610ab6565b5b8235905067ffffffffffffffff811115610af457610af3610aba565b5b602083019150836001820283011115610b1057610b0f610abe565b5b9250929050565b610b20816109de565b8114610b2a575f80fd5b50565b5f81359050610b3b81610b17565b92915050565b5f805f60408486031215610b5857610b576108c7565b5b5f84013567ffffffffffffffff811115610b7557610b746108cb565b5b610b8186828701610ac2565b93509350506020610b9486828701610b2d565b9150509250925092565b5f60ff82169050919050565b610bb381610b9e565b8114610bbd575f80fd5b50565b5f81359050610bce81610baa565b92915050565b5f60208284031215610be957610be86108c7565b5b5f610bf684828501610bc0565b91505092915050565b610c08816109de565b82525050565b5f602082019050610c215f830184610bff565b92915050565b5f60208284031215610c3c57610c3b6108c7565b5b5f610c4984828501610b2d565b91505092915050565b7f4e487b71000000000000000000000000000000000000000000000000000000005f52602260045260245ffd5b5f6002820490506001821680610c9657607f821691505b602082108103610ca957610ca8610c52565b5b50919050565b7f4e487b71000000000000000000000000000000000000000000000000000000005f52601160045260245ffd5b5f610ce6826109de565b9150610cf1836109de565b9250828201905080821115610d0957610d08610caf565b5b92915050565b7f4e487b71000000000000000000000000000000000000000000000000000000005f52604160045260245ffd5b5f819050815f5260205f209050919050565b5f6020601f8301049050919050565b5f82821b905092915050565b5f60088302610d987fffffffffffffffffffffffffffffffffffffffffffffffffffffffffffffffff82610d5d565b610da28683610d5d565b95508019841693508086168417925050509392505050565b5f819050919050565b5f610ddd610dd8610dd3846109de565b610dba565b6109de565b9050919050565b5f819050919050565b610df683610dc3565b610e0a610e0282610de4565b848454610d69565b825550505050565b5f90565b610e1e610e12565b610e29818484610ded565b505050565b5b81811015610e4c57610e415f82610e16565b600181019050610e2f565b5050565b601f821115610e9157610e6281610d3c565b610e6b84610d4e565b81016020851015610e7a578190505b610e8e610e8685610d4e565b830182610e2e565b50505b505050565b5f82821c905092915050565b5f610eb15f1984600802610e96565b1980831691505092915050565b5f610ec98383610ea2565b9150826002028217905092915050565b610ee282610954565b67ffffffffffffffff811115610efb57610efa610d0f565b5b610f058254610c7f565b610f10828285610e50565b5f60209050601f831160018114610f41575f8415610f2f578287015190505b610f398582610ebe565b865550610fa0565b601f198416610f4f86610d3c565b5f5b82811015610f7657848901518255600182019150602085019450602081019050610f51565b86831015610f935784890151610f8f601f891682610ea2565b8355505b6001600288020188555050505b505050505050565b5f82825260208201905092915050565b7f416464726573732068617320616c726561647920766f7465642e0000000000005f82015250565b5f610fec601a83610fa8565b9150610ff782610fb8565b602082019050919050565b5f6020820190508181035f83015261101981610fe0565b9050919050565b7f566f7465206c696d6974207265616368656421000000000000000000000000005f82015250565b5f611054601383610fa8565b915061105f82611020565b602082019050919050565b5f6020820190508181035f83015261108181611048565b9050919050565b5f611092826109de565b915061109d836109de565b92508282039050818111156110b5576110b4610caf565b5b9291505056fea2646970667358221220f4388230ddaf3de3f376307360302553123c2525d86bfd9cb95a44c46870ae0664736f6c63430008180033",
					"opcodes": "PUSH1 0x80 PUSH1 0x40 MSTORE CALLVALUE DUP1 ISZERO PUSH2 0xF JUMPI PUSH0 DUP1 REVERT JUMPDEST POP CALLER PUSH0 DUP1 PUSH2 0x100 EXP DUP2 SLOAD DUP2 PUSH20 0xFFFFFFFFFFFFFFFFFFFFFFFFFFFFFFFFFFFFFFFF MUL NOT AND SWAP1 DUP4 PUSH20 0xFFFFFFFFFFFFFFFFFFFFFFFFFFFFFFFFFFFFFFFF AND MUL OR SWAP1 SSTORE POP PUSH2 0x10F1 DUP1 PUSH2 0x5C PUSH0 CODECOPY PUSH0 RETURN INVALID PUSH1 0x80 PUSH1 0x40 MSTORE CALLVALUE DUP1 ISZERO PUSH2 0xF JUMPI PUSH0 DUP1 REVERT JUMPDEST POP PUSH1 0x4 CALLDATASIZE LT PUSH2 0x7B JUMPI PUSH0 CALLDATALOAD PUSH1 0xE0 SHR DUP1 PUSH4 0xB3F98ADC GT PUSH2 0x59 JUMPI DUP1 PUSH4 0xB3F98ADC EQ PUSH2 0xD5 JUMPI DUP1 PUSH4 0xC500D240 EQ PUSH2 0xF1 JUMPI DUP1 PUSH4 0xC7F758A8 EQ PUSH2 0x10F JUMPI DUP1 PUSH4 0xDBDDC7AA EQ PUSH2 0x13F JUMPI PUSH2 0x7B JUMP JUMPDEST DUP1 PUSH4 0x13AF4035 EQ PUSH2 0x7F JUMPI DUP1 PUSH4 0x41EC6870 EQ PUSH2 0x9B JUMPI DUP1 PUSH4 0x46F81A87 EQ PUSH2 0xB9 JUMPI JUMPDEST PUSH0 DUP1 REVERT JUMPDEST PUSH2 0x99 PUSH1 0x4 DUP1 CALLDATASIZE SUB DUP2 ADD SWAP1 PUSH2 0x94 SWAP2 SWAP1 PUSH2 0x929 JUMP JUMPDEST PUSH2 0x149 JUMP JUMPDEST STOP JUMPDEST PUSH2 0xA3 PUSH2 0x1E1 JUMP JUMPDEST PUSH1 0x40 MLOAD PUSH2 0xB0 SWAP2 SWAP1 PUSH2 0xA96 JUMP JUMPDEST PUSH1 0x40 MLOAD DUP1 SWAP2 SUB SWAP1 RETURN JUMPDEST PUSH2 0xD3 PUSH1 0x4 DUP1 CALLDATASIZE SUB DUP2 ADD SWAP1 PUSH2 0xCE SWAP2 SWAP1 PUSH2 0xB41 JUMP JUMPDEST PUSH2 0x2DD JUMP JUMPDEST STOP JUMPDEST PUSH2 0xEF PUSH1 0x4 DUP1 CALLDATASIZE SUB DUP2 ADD SWAP1 PUSH2 0xEA SWAP2 SWAP1 PUSH2 0xBD4 JUMP JUMPDEST PUSH2 0x434 JUMP JUMPDEST STOP JUMPDEST PUSH2 0xF9 PUSH2 0x61E JUMP JUMPDEST PUSH1 0x40 MLOAD PUSH2 0x106 SWAP2 SWAP1 PUSH2 0xC0E JUMP JUMPDEST PUSH1 0x40 MLOAD DUP1 SWAP2 SUB SWAP1 RETURN JUMPDEST PUSH2 0x129 PUSH1 0x4 DUP1 CALLDATASIZE SUB DUP2 ADD SWAP1 PUSH2 0x124 SWAP2 SWAP1 PUSH2 0xC27 JUMP JUMPDEST PUSH2 0x67D JUMP JUMPDEST PUSH1 0x40 MLOAD PUSH2 0x136 SWAP2 SWAP1 PUSH2 0xA96 JUMP JUMPDEST PUSH1 0x40 MLOAD DUP1 SWAP2 SUB SWAP1 RETURN JUMPDEST PUSH2 0x147 PUSH2 0x779 JUMP JUMPDEST STOP JUMPDEST PUSH0 DUP1 SLOAD SWAP1 PUSH2 0x100 EXP SWAP1 DIV PUSH20 0xFFFFFFFFFFFFFFFFFFFFFFFFFFFFFFFFFFFFFFFF AND PUSH20 0xFFFFFFFFFFFFFFFFFFFFFFFFFFFFFFFFFFFFFFFF AND CALLER PUSH20 0xFFFFFFFFFFFFFFFFFFFFFFFFFFFFFFFFFFFFFFFF AND EQ PUSH2 0x19F JUMPI PUSH0 DUP1 REVERT JUMPDEST DUP1 PUSH0 DUP1 PUSH2 0x100 EXP DUP2 SLOAD DUP2 PUSH20 0xFFFFFFFFFFFFFFFFFFFFFFFFFFFFFFFFFFFFFFFF MUL NOT AND SWAP1 DUP4 PUSH20 0xFFFFFFFFFFFFFFFFFFFFFFFFFFFFFFFFFFFFFFFF AND MUL OR SWAP1 SSTORE POP POP JUMP JUMPDEST PUSH2 0x1E9 PUSH2 0x894 JUMP JUMPDEST PUSH1 0x2 PUSH0 PUSH1 0x1 SLOAD DUP2 MSTORE PUSH1 0x20 ADD SWAP1 DUP2 MSTORE PUSH1 0x20 ADD PUSH0 KECCAK256 PUSH1 0x40 MLOAD DUP1 PUSH1 0xC0 ADD PUSH1 0x40 MSTORE SWAP1 DUP2 PUSH0 DUP3 ADD DUP1 SLOAD PUSH2 0x216 SWAP1 PUSH2 0xC7F JUMP JUMPDEST DUP1 PUSH1 0x1F ADD PUSH1 0x20 DUP1 SWAP2 DIV MUL PUSH1 0x20 ADD PUSH1 0x40 MLOAD SWAP1 DUP2 ADD PUSH1 0x40 MSTORE DUP1 SWAP3 SWAP2 SWAP1 DUP2 DUP2 MSTORE PUSH1 0x20 ADD DUP3 DUP1 SLOAD PUSH2 0x242 SWAP1 PUSH2 0xC7F JUMP JUMPDEST DUP1 ISZERO PUSH2 0x28D JUMPI DUP1 PUSH1 0x1F LT PUSH2 0x264 JUMPI PUSH2 0x100 DUP1 DUP4 SLOAD DIV MUL DUP4 MSTORE SWAP2 PUSH1 0x20 ADD SWAP2 PUSH2 0x28D JUMP JUMPDEST DUP3 ADD SWAP2 SWAP1 PUSH0 MSTORE PUSH1 0x20 PUSH0 KECCAK256 SWAP1 JUMPDEST DUP2 SLOAD DUP2 MSTORE SWAP1 PUSH1 0x1 ADD SWAP1 PUSH1 0x20 ADD DUP1 DUP4 GT PUSH2 0x270 JUMPI DUP3 SWAP1 SUB PUSH1 0x1F AND DUP3 ADD SWAP2 JUMPDEST POP POP POP POP POP DUP2 MSTORE PUSH1 0x20 ADD PUSH1 0x1 DUP3 ADD SLOAD DUP2 MSTORE PUSH1 0x20 ADD PUSH1 0x2 DUP3 ADD SLOAD DUP2 MSTORE PUSH1 0x20 ADD PUSH1 0x3 DUP3 ADD SLOAD DUP2 MSTORE PUSH1 0x20 ADD PUSH1 0x4 DUP3 ADD SLOAD DUP2 MSTORE PUSH1 0x20 ADD PUSH1 0x5 DUP3 ADD PUSH0 SWAP1 SLOAD SWAP1 PUSH2 0x100 EXP SWAP1 DIV PUSH1 0xFF AND ISZERO ISZERO ISZERO ISZERO DUP2 MSTORE POP POP SWAP1 POP SWAP1 JUMP JUMPDEST PUSH0 DUP1 SLOAD SWAP1 PUSH2 0x100 EXP SWAP1 DIV PUSH20 0xFFFFFFFFFFFFFFFFFFFFFFFFFFFFFFFFFFFFFFFF AND PUSH20 0xFFFFFFFFFFFFFFFFFFFFFFFFFFFFFFFFFFFFFFFF AND CALLER PUSH20 0xFFFFFFFFFFFFFFFFFFFFFFFFFFFFFFFFFFFFFFFF AND EQ PUSH2 0x333 JUMPI PUSH0 DUP1 REVERT JUMPDEST PUSH1 0x1 DUP1 PUSH0 DUP3 DUP3 SLOAD PUSH2 0x344 SWAP2 SWAP1 PUSH2 0xCDC JUMP JUMPDEST SWAP3 POP POP DUP2 SWAP1 SSTORE POP PUSH1 0x40 MLOAD DUP1 PUSH1 0xC0 ADD PUSH1 0x40 MSTORE DUP1 DUP5 DUP5 DUP1 DUP1 PUSH1 0x1F ADD PUSH1 0x20 DUP1 SWAP2 DIV MUL PUSH1 0x20 ADD PUSH1 0x40 MLOAD SWAP1 DUP2 ADD PUSH1 0x40 MSTORE DUP1 SWAP4 SWAP3 SWAP2 SWAP1 DUP2 DUP2 MSTORE PUSH1 0x20 ADD DUP4 DUP4 DUP1 DUP3 DUP5 CALLDATACOPY PUSH0 DUP2 DUP5 ADD MSTORE PUSH1 0x1F NOT PUSH1 0x1F DUP3 ADD AND SWAP1 POP DUP1 DUP4 ADD SWAP3 POP POP POP POP POP POP POP DUP2 MSTORE PUSH1 0x20 ADD PUSH0 DUP2 MSTORE PUSH1 0x20 ADD PUSH0 DUP2 MSTORE PUSH1 0x20 ADD PUSH0 DUP2 MSTORE PUSH1 0x20 ADD DUP3 DUP2 MSTORE PUSH1 0x20 ADD PUSH1 0x1 ISZERO ISZERO DUP2 MSTORE POP PUSH1 0x2 PUSH0 PUSH1 0x1 SLOAD DUP2 MSTORE PUSH1 0x20 ADD SWAP1 DUP2 MSTORE PUSH1 0x20 ADD PUSH0 KECCAK256 PUSH0 DUP3 ADD MLOAD DUP2 PUSH0 ADD SWAP1 DUP2 PUSH2 0x3E4 SWAP2 SWAP1 PUSH2 0xED9 JUMP JUMPDEST POP PUSH1 0x20 DUP3 ADD MLOAD DUP2 PUSH1 0x1 ADD SSTORE PUSH1 0x40 DUP3 ADD MLOAD DUP2 PUSH1 0x2 ADD SSTORE PUSH1 0x60 DUP3 ADD MLOAD DUP2 PUSH1 0x3 ADD SSTORE PUSH1 0x80 DUP3 ADD MLOAD DUP2 PUSH1 0x4 ADD SSTORE PUSH1 0xA0 DUP3 ADD MLOAD DUP2 PUSH1 0x5 ADD PUSH0 PUSH2 0x100 EXP DUP2 SLOAD DUP2 PUSH1 0xFF MUL NOT AND SWAP1 DUP4 ISZERO ISZERO MUL OR SWAP1 SSTORE POP SWAP1 POP POP POP POP POP JUMP JUMPDEST PUSH1 0x1 ISZERO ISZERO PUSH1 0x2 PUSH0 PUSH1 0x1 SLOAD DUP2 MSTORE PUSH1 0x20 ADD SWAP1 DUP2 MSTORE PUSH1 0x20 ADD PUSH0 KECCAK256 PUSH1 0x5 ADD PUSH0 SWAP1 SLOAD SWAP1 PUSH2 0x100 EXP SWAP1 DIV PUSH1 0xFF AND ISZERO ISZERO EQ PUSH2 0x466 JUMPI PUSH0 DUP1 REVERT JUMPDEST PUSH1 0x3 PUSH0 CALLER PUSH20 0xFFFFFFFFFFFFFFFFFFFFFFFFFFFFFFFFFFFFFFFF AND PUSH20 0xFFFFFFFFFFFFFFFFFFFFFFFFFFFFFFFFFFFFFFFF AND DUP2 MSTORE PUSH1 0x20 ADD SWAP1 DUP2 MSTORE PUSH1 0x20 ADD PUSH0 KECCAK256 PUSH0 SWAP1 SLOAD SWAP1 PUSH2 0x100 EXP SWAP1 DIV PUSH1 0xFF AND ISZERO PUSH2 0x4F0 JUMPI PUSH1 0x40 MLOAD PUSH32 0x8C379A000000000000000000000000000000000000000000000000000000000 DUP2 MSTORE PUSH1 0x4 ADD PUSH2 0x4E7 SWAP1 PUSH2 0x1002 JUMP JUMPDEST PUSH1 0x40 MLOAD DUP1 SWAP2 SUB SWAP1 REVERT JUMPDEST PUSH1 0x2 PUSH0 PUSH1 0x1 SLOAD DUP2 MSTORE PUSH1 0x20 ADD SWAP1 DUP2 MSTORE PUSH1 0x20 ADD PUSH0 KECCAK256 PUSH2 0x50C DUP2 PUSH2 0x830 JUMP JUMPDEST PUSH2 0x54B JUMPI PUSH1 0x40 MLOAD PUSH32 0x8C379A000000000000000000000000000000000000000000000000000000000 DUP2 MSTORE PUSH1 0x4 ADD PUSH2 0x542 SWAP1 PUSH2 0x106A JUMP JUMPDEST PUSH1 0x40 MLOAD DUP1 SWAP2 SUB SWAP1 REVERT JUMPDEST PUSH0 PUSH1 0x2 PUSH0 PUSH1 0x1 SLOAD DUP2 MSTORE PUSH1 0x20 ADD SWAP1 DUP2 MSTORE PUSH1 0x20 ADD PUSH0 KECCAK256 SWAP1 POP PUSH1 0x1 DUP4 PUSH1 0xFF AND SUB PUSH2 0x58C JUMPI PUSH1 0x1 DUP2 PUSH1 0x1 ADD PUSH0 DUP3 DUP3 SLOAD PUSH2 0x580 SWAP2 SWAP1 PUSH2 0xCDC JUMP JUMPDEST SWAP3 POP POP DUP2 SWAP1 SSTORE POP PUSH2 0x5DF JUMP JUMPDEST PUSH1 0x2 DUP4 PUSH1 0xFF AND SUB PUSH2 0x5B7 JUMPI PUSH1 0x1 DUP2 PUSH1 0x2 ADD PUSH0 DUP3 DUP3 SLOAD PUSH2 0x5AB SWAP2 SWAP1 PUSH2 0xCDC JUMP JUMPDEST SWAP3 POP POP DUP2 SWAP1 SSTORE POP PUSH2 0x5DE JUMP JUMPDEST PUSH0 DUP4 PUSH1 0xFF AND SUB PUSH2 0x5DD JUMPI PUSH1 0x1 DUP2 PUSH1 0x3 ADD PUSH0 DUP3 DUP3 SLOAD PUSH2 0x5D5 SWAP2 SWAP1 PUSH2 0xCDC JUMP JUMPDEST SWAP3 POP POP DUP2 SWAP1 SSTORE POP JUMPDEST JUMPDEST JUMPDEST PUSH1 0x1 PUSH2 0x5E9 PUSH2 0x61E JUMP JUMPDEST DUP3 PUSH1 0x4 ADD SLOAD PUSH2 0x5F8 SWAP2 SWAP1 PUSH2 0x1088 JUMP JUMPDEST SUB PUSH2 0x619 JUMPI PUSH0 DUP2 PUSH1 0x5 ADD PUSH0 PUSH2 0x100 EXP DUP2 SLOAD DUP2 PUSH1 0xFF MUL NOT AND SWAP1 DUP4 ISZERO ISZERO MUL OR SWAP1 SSTORE POP JUMPDEST POP POP POP JUMP JUMPDEST PUSH0 PUSH1 0x2 PUSH0 PUSH1 0x1 SLOAD DUP2 MSTORE PUSH1 0x20 ADD SWAP1 DUP2 MSTORE PUSH1 0x20 ADD PUSH0 KECCAK256 PUSH1 0x3 ADD SLOAD PUSH1 0x2 PUSH0 PUSH1 0x1 SLOAD DUP2 MSTORE PUSH1 0x20 ADD SWAP1 DUP2 MSTORE PUSH1 0x20 ADD PUSH0 KECCAK256 PUSH1 0x2 ADD SLOAD PUSH1 0x2 PUSH0 PUSH1 0x1 SLOAD DUP2 MSTORE PUSH1 0x20 ADD SWAP1 DUP2 MSTORE PUSH1 0x20 ADD PUSH0 KECCAK256 PUSH1 0x1 ADD SLOAD PUSH2 0x66E SWAP2 SWAP1 PUSH2 0xCDC JUMP JUMPDEST PUSH2 0x678 SWAP2 SWAP1 PUSH2 0xCDC JUMP JUMPDEST SWAP1 POP SWAP1 JUMP JUMPDEST PUSH2 0x685 PUSH2 0x894 JUMP JUMPDEST PUSH1 0x2 PUSH0 DUP4 DUP2 MSTORE PUSH1 0x20 ADD SWAP1 DUP2 MSTORE PUSH1 0x20 ADD PUSH0 KECCAK256 PUSH1 0x40 MLOAD DUP1 PUSH1 0xC0 ADD PUSH1 0x40 MSTORE SWAP1 DUP2 PUSH0 DUP3 ADD DUP1 SLOAD PUSH2 0x6B0 SWAP1 PUSH2 0xC7F JUMP JUMPDEST DUP1 PUSH1 0x1F ADD PUSH1 0x20 DUP1 SWAP2 DIV MUL PUSH1 0x20 ADD PUSH1 0x40 MLOAD SWAP1 DUP2 ADD PUSH1 0x40 MSTORE DUP1 SWAP3 SWAP2 SWAP1 DUP2 DUP2 MSTORE PUSH1 0x20 ADD DUP3 DUP1 SLOAD PUSH2 0x6DC SWAP1 PUSH2 0xC7F JUMP JUMPDEST DUP1 ISZERO PUSH2 0x727 JUMPI DUP1 PUSH1 0x1F LT PUSH2 0x6FE JUMPI PUSH2 0x100 DUP1 DUP4 SLOAD DIV MUL DUP4 MSTORE SWAP2 PUSH1 0x20 ADD SWAP2 PUSH2 0x727 JUMP JUMPDEST DUP3 ADD SWAP2 SWAP1 PUSH0 MSTORE PUSH1 0x20 PUSH0 KECCAK256 SWAP1 JUMPDEST DUP2 SLOAD DUP2 MSTORE SWAP1 PUSH1 0x1 ADD SWAP1 PUSH1 0x20 ADD DUP1 DUP4 GT PUSH2 0x70A JUMPI DUP3 SWAP1 SUB PUSH1 0x1F AND DUP3 ADD SWAP2 JUMPDEST POP POP POP POP POP DUP2 MSTORE PUSH1 0x20 ADD PUSH1 0x1 DUP3 ADD SLOAD DUP2 MSTORE PUSH1 0x20 ADD PUSH1 0x2 DUP3 ADD SLOAD DUP2 MSTORE PUSH1 0x20 ADD PUSH1 0x3 DUP3 ADD SLOAD DUP2 MSTORE PUSH1 0x20 ADD PUSH1 0x4 DUP3 ADD SLOAD DUP2 MSTORE PUSH1 0x20 ADD PUSH1 0x5 DUP3 ADD PUSH0 SWAP1 SLOAD SWAP1 PUSH2 0x100 EXP SWAP1 DIV PUSH1 0xFF AND ISZERO ISZERO ISZERO ISZERO DUP2 MSTORE POP POP SWAP1 POP SWAP2 SWAP1 POP JUMP JUMPDEST PUSH0 DUP1 SLOAD SWAP1 PUSH2 0x100 EXP SWAP1 DIV PUSH20 0xFFFFFFFFFFFFFFFFFFFFFFFFFFFFFFFFFFFFFFFF AND PUSH20 0xFFFFFFFFFFFFFFFFFFFFFFFFFFFFFFFFFFFFFFFF AND CALLER PUSH20 0xFFFFFFFFFFFFFFFFFFFFFFFFFFFFFFFFFFFFFFFF AND EQ PUSH2 0x7CF JUMPI PUSH0 DUP1 REVERT JUMPDEST PUSH1 0x1 ISZERO ISZERO PUSH1 0x2 PUSH0 PUSH1 0x1 SLOAD DUP2 MSTORE PUSH1 0x20 ADD SWAP1 DUP2 MSTORE PUSH1 0x20 ADD PUSH0 KECCAK256 PUSH1 0x5 ADD PUSH0 SWAP1 SLOAD SWAP1 PUSH2 0x100 EXP SWAP1 DIV PUSH1 0xFF AND ISZERO ISZERO EQ PUSH2 0x801 JUMPI PUSH0 DUP1 REVERT JUMPDEST PUSH0 PUSH1 0x2 PUSH0 PUSH1 0x1 SLOAD DUP2 MSTORE PUSH1 0x20 ADD SWAP1 DUP2 MSTORE PUSH1 0x20 ADD PUSH0 KECCAK256 PUSH1 0x5 ADD PUSH0 PUSH2 0x100 EXP DUP2 SLOAD DUP2 PUSH1 0xFF MUL NOT AND SWAP1 DUP4 ISZERO ISZERO MUL OR SWAP1 SSTORE POP JUMP JUMPDEST PUSH0 DUP1 DUP3 PUSH1 0x1 ADD SLOAD SWAP1 POP PUSH0 DUP4 PUSH1 0x2 ADD SLOAD SWAP1 POP PUSH0 DUP5 PUSH1 0x3 ADD SLOAD SWAP1 POP PUSH0 PUSH1 0x1 DUP3 DUP5 DUP7 PUSH2 0x859 SWAP2 SWAP1 PUSH2 0xCDC JUMP JUMPDEST PUSH2 0x863 SWAP2 SWAP1 PUSH2 0xCDC JUMP JUMPDEST SWAP1 SHR SWAP1 POP DUP2 DUP4 PUSH2 0x873 SWAP2 SWAP1 PUSH2 0xCDC JUMP JUMPDEST DUP2 GT ISZERO PUSH2 0x887 JUMPI PUSH1 0x1 SWAP5 POP POP POP POP POP PUSH2 0x88F JUMP JUMPDEST PUSH0 SWAP5 POP POP POP POP POP JUMPDEST SWAP2 SWAP1 POP JUMP JUMPDEST PUSH1 0x40 MLOAD DUP1 PUSH1 0xC0 ADD PUSH1 0x40 MSTORE DUP1 PUSH1 0x60 DUP2 MSTORE PUSH1 0x20 ADD PUSH0 DUP2 MSTORE PUSH1 0x20 ADD PUSH0 DUP2 MSTORE PUSH1 0x20 ADD PUSH0 DUP2 MSTORE PUSH1 0x20 ADD PUSH0 DUP2 MSTORE PUSH1 0x20 ADD PUSH0 ISZERO ISZERO DUP2 MSTORE POP SWAP1 JUMP JUMPDEST PUSH0 DUP1 REVERT JUMPDEST PUSH0 DUP1 REVERT JUMPDEST PUSH0 PUSH20 0xFFFFFFFFFFFFFFFFFFFFFFFFFFFFFFFFFFFFFFFF DUP3 AND SWAP1 POP SWAP2 SWAP1 POP JUMP JUMPDEST PUSH0 PUSH2 0x8F8 DUP3 PUSH2 0x8CF JUMP JUMPDEST SWAP1 POP SWAP2 SWAP1 POP JUMP JUMPDEST PUSH2 0x908 DUP2 PUSH2 0x8EE JUMP JUMPDEST DUP2 EQ PUSH2 0x912 JUMPI PUSH0 DUP1 REVERT JUMPDEST POP JUMP JUMPDEST PUSH0 DUP2 CALLDATALOAD SWAP1 POP PUSH2 0x923 DUP2 PUSH2 0x8FF JUMP JUMPDEST SWAP3 SWAP2 POP POP JUMP JUMPDEST PUSH0 PUSH1 0x20 DUP3 DUP5 SUB SLT ISZERO PUSH2 0x93E JUMPI PUSH2 0x93D PUSH2 0x8C7 JUMP JUMPDEST JUMPDEST PUSH0 PUSH2 0x94B DUP5 DUP3 DUP6 ADD PUSH2 0x915 JUMP JUMPDEST SWAP2 POP POP SWAP3 SWAP2 POP POP JUMP JUMPDEST PUSH0 DUP2 MLOAD SWAP1 POP SWAP2 SWAP1 POP JUMP JUMPDEST PUSH0 DUP3 DUP3 MSTORE PUSH1 0x20 DUP3 ADD SWAP1 POP SWAP3 SWAP2 POP POP JUMP JUMPDEST PUSH0 JUMPDEST DUP4 DUP2 LT ISZERO PUSH2 0x98B JUMPI DUP1 DUP3 ADD MLOAD DUP2 DUP5 ADD MSTORE PUSH1 0x20 DUP2 ADD SWAP1 POP PUSH2 0x970 JUMP JUMPDEST PUSH0 DUP5 DUP5 ADD MSTORE POP POP POP POP JUMP JUMPDEST PUSH0 PUSH1 0x1F NOT PUSH1 0x1F DUP4 ADD AND SWAP1 POP SWAP2 SWAP1 POP JUMP JUMPDEST PUSH0 PUSH2 0x9B0 DUP3 PUSH2 0x954 JUMP JUMPDEST PUSH2 0x9BA DUP2 DUP6 PUSH2 0x95E JUMP JUMPDEST SWAP4 POP PUSH2 0x9CA DUP2 DUP6 PUSH1 0x20 DUP7 ADD PUSH2 0x96E JUMP JUMPDEST PUSH2 0x9D3 DUP2 PUSH2 0x996 JUMP JUMPDEST DUP5 ADD SWAP2 POP POP SWAP3 SWAP2 POP POP JUMP JUMPDEST PUSH0 DUP2 SWAP1 POP SWAP2 SWAP1 POP JUMP JUMPDEST PUSH2 0x9F0 DUP2 PUSH2 0x9DE JUMP JUMPDEST DUP3 MSTORE POP POP JUMP JUMPDEST PUSH0 DUP2 ISZERO ISZERO SWAP1 POP SWAP2 SWAP1 POP JUMP JUMPDEST PUSH2 0xA0A DUP2 PUSH2 0x9F6 JUMP JUMPDEST DUP3 MSTORE POP POP JUMP JUMPDEST PUSH0 PUSH1 0xC0 DUP4 ADD PUSH0 DUP4 ADD MLOAD DUP5 DUP3 SUB PUSH0 DUP7 ADD MSTORE PUSH2 0xA2A DUP3 DUP3 PUSH2 0x9A6 JUMP JUMPDEST SWAP2 POP POP PUSH1 0x20 DUP4 ADD MLOAD PUSH2 0xA3F PUSH1 0x20 DUP7 ADD DUP3 PUSH2 0x9E7 JUMP JUMPDEST POP PUSH1 0x40 DUP4 ADD MLOAD PUSH2 0xA52 PUSH1 0x40 DUP7 ADD DUP3 PUSH2 0x9E7 JUMP JUMPDEST POP PUSH1 0x60 DUP4 ADD MLOAD PUSH2 0xA65 PUSH1 0x60 DUP7 ADD DUP3 PUSH2 0x9E7 JUMP JUMPDEST POP PUSH1 0x80 DUP4 ADD MLOAD PUSH2 0xA78 PUSH1 0x80 DUP7 ADD DUP3 PUSH2 0x9E7 JUMP JUMPDEST POP PUSH1 0xA0 DUP4 ADD MLOAD PUSH2 0xA8B PUSH1 0xA0 DUP7 ADD DUP3 PUSH2 0xA01 JUMP JUMPDEST POP DUP1 SWAP2 POP POP SWAP3 SWAP2 POP POP JUMP JUMPDEST PUSH0 PUSH1 0x20 DUP3 ADD SWAP1 POP DUP2 DUP2 SUB PUSH0 DUP4 ADD MSTORE PUSH2 0xAAE DUP2 DUP5 PUSH2 0xA10 JUMP JUMPDEST SWAP1 POP SWAP3 SWAP2 POP POP JUMP JUMPDEST PUSH0 DUP1 REVERT JUMPDEST PUSH0 DUP1 REVERT JUMPDEST PUSH0 DUP1 REVERT JUMPDEST PUSH0 DUP1 DUP4 PUSH1 0x1F DUP5 ADD SLT PUSH2 0xAD7 JUMPI PUSH2 0xAD6 PUSH2 0xAB6 JUMP JUMPDEST JUMPDEST DUP3 CALLDATALOAD SWAP1 POP PUSH8 0xFFFFFFFFFFFFFFFF DUP2 GT ISZERO PUSH2 0xAF4 JUMPI PUSH2 0xAF3 PUSH2 0xABA JUMP JUMPDEST JUMPDEST PUSH1 0x20 DUP4 ADD SWAP2 POP DUP4 PUSH1 0x1 DUP3 MUL DUP4 ADD GT ISZERO PUSH2 0xB10 JUMPI PUSH2 0xB0F PUSH2 0xABE JUMP JUMPDEST JUMPDEST SWAP3 POP SWAP3 SWAP1 POP JUMP JUMPDEST PUSH2 0xB20 DUP2 PUSH2 0x9DE JUMP JUMPDEST DUP2 EQ PUSH2 0xB2A JUMPI PUSH0 DUP1 REVERT JUMPDEST POP JUMP JUMPDEST PUSH0 DUP2 CALLDATALOAD SWAP1 POP PUSH2 0xB3B DUP2 PUSH2 0xB17 JUMP JUMPDEST SWAP3 SWAP2 POP POP JUMP JUMPDEST PUSH0 DUP1 PUSH0 PUSH1 0x40 DUP5 DUP7 SUB SLT ISZERO PUSH2 0xB58 JUMPI PUSH2 0xB57 PUSH2 0x8C7 JUMP JUMPDEST JUMPDEST PUSH0 DUP5 ADD CALLDATALOAD PUSH8 0xFFFFFFFFFFFFFFFF DUP2 GT ISZERO PUSH2 0xB75 JUMPI PUSH2 0xB74 PUSH2 0x8CB JUMP JUMPDEST JUMPDEST PUSH2 0xB81 DUP7 DUP3 DUP8 ADD PUSH2 0xAC2 JUMP JUMPDEST SWAP4 POP SWAP4 POP POP PUSH1 0x20 PUSH2 0xB94 DUP7 DUP3 DUP8 ADD PUSH2 0xB2D JUMP JUMPDEST SWAP2 POP POP SWAP3 POP SWAP3 POP SWAP3 JUMP JUMPDEST PUSH0 PUSH1 0xFF DUP3 AND SWAP1 POP SWAP2 SWAP1 POP JUMP JUMPDEST PUSH2 0xBB3 DUP2 PUSH2 0xB9E JUMP JUMPDEST DUP2 EQ PUSH2 0xBBD JUMPI PUSH0 DUP1 REVERT JUMPDEST POP JUMP JUMPDEST PUSH0 DUP2 CALLDATALOAD SWAP1 POP PUSH2 0xBCE DUP2 PUSH2 0xBAA JUMP JUMPDEST SWAP3 SWAP2 POP POP JUMP JUMPDEST PUSH0 PUSH1 0x20 DUP3 DUP5 SUB SLT ISZERO PUSH2 0xBE9 JUMPI PUSH2 0xBE8 PUSH2 0x8C7 JUMP JUMPDEST JUMPDEST PUSH0 PUSH2 0xBF6 DUP5 DUP3 DUP6 ADD PUSH2 0xBC0 JUMP JUMPDEST SWAP2 POP POP SWAP3 SWAP2 POP POP JUMP JUMPDEST PUSH2 0xC08 DUP2 PUSH2 0x9DE JUMP JUMPDEST DUP3 MSTORE POP POP JUMP JUMPDEST PUSH0 PUSH1 0x20 DUP3 ADD SWAP1 POP PUSH2 0xC21 PUSH0 DUP4 ADD DUP5 PUSH2 0xBFF JUMP JUMPDEST SWAP3 SWAP2 POP POP JUMP JUMPDEST PUSH0 PUSH1 0x20 DUP3 DUP5 SUB SLT ISZERO PUSH2 0xC3C JUMPI PUSH2 0xC3B PUSH2 0x8C7 JUMP JUMPDEST JUMPDEST PUSH0 PUSH2 0xC49 DUP5 DUP3 DUP6 ADD PUSH2 0xB2D JUMP JUMPDEST SWAP2 POP POP SWAP3 SWAP2 POP POP JUMP JUMPDEST PUSH32 0x4E487B7100000000000000000000000000000000000000000000000000000000 PUSH0 MSTORE PUSH1 0x22 PUSH1 0x4 MSTORE PUSH1 0x24 PUSH0 REVERT JUMPDEST PUSH0 PUSH1 0x2 DUP3 DIV SWAP1 POP PUSH1 0x1 DUP3 AND DUP1 PUSH2 0xC96 JUMPI PUSH1 0x7F DUP3 AND SWAP2 POP JUMPDEST PUSH1 0x20 DUP3 LT DUP2 SUB PUSH2 0xCA9 JUMPI PUSH2 0xCA8 PUSH2 0xC52 JUMP JUMPDEST JUMPDEST POP SWAP2 SWAP1 POP JUMP JUMPDEST PUSH32 0x4E487B7100000000000000000000000000000000000000000000000000000000 PUSH0 MSTORE PUSH1 0x11 PUSH1 0x4 MSTORE PUSH1 0x24 PUSH0 REVERT JUMPDEST PUSH0 PUSH2 0xCE6 DUP3 PUSH2 0x9DE JUMP JUMPDEST SWAP2 POP PUSH2 0xCF1 DUP4 PUSH2 0x9DE JUMP JUMPDEST SWAP3 POP DUP3 DUP3 ADD SWAP1 POP DUP1 DUP3 GT ISZERO PUSH2 0xD09 JUMPI PUSH2 0xD08 PUSH2 0xCAF JUMP JUMPDEST JUMPDEST SWAP3 SWAP2 POP POP JUMP JUMPDEST PUSH32 0x4E487B7100000000000000000000000000000000000000000000000000000000 PUSH0 MSTORE PUSH1 0x41 PUSH1 0x4 MSTORE PUSH1 0x24 PUSH0 REVERT JUMPDEST PUSH0 DUP2 SWAP1 POP DUP2 PUSH0 MSTORE PUSH1 0x20 PUSH0 KECCAK256 SWAP1 POP SWAP2 SWAP1 POP JUMP JUMPDEST PUSH0 PUSH1 0x20 PUSH1 0x1F DUP4 ADD DIV SWAP1 POP SWAP2 SWAP1 POP JUMP JUMPDEST PUSH0 DUP3 DUP3 SHL SWAP1 POP SWAP3 SWAP2 POP POP JUMP JUMPDEST PUSH0 PUSH1 0x8 DUP4 MUL PUSH2 0xD98 PUSH32 0xFFFFFFFFFFFFFFFFFFFFFFFFFFFFFFFFFFFFFFFFFFFFFFFFFFFFFFFFFFFFFFFF DUP3 PUSH2 0xD5D JUMP JUMPDEST PUSH2 0xDA2 DUP7 DUP4 PUSH2 0xD5D JUMP JUMPDEST SWAP6 POP DUP1 NOT DUP5 AND SWAP4 POP DUP1 DUP7 AND DUP5 OR SWAP3 POP POP POP SWAP4 SWAP3 POP POP POP JUMP JUMPDEST PUSH0 DUP2 SWAP1 POP SWAP2 SWAP1 POP JUMP JUMPDEST PUSH0 PUSH2 0xDDD PUSH2 0xDD8 PUSH2 0xDD3 DUP5 PUSH2 0x9DE JUMP JUMPDEST PUSH2 0xDBA JUMP JUMPDEST PUSH2 0x9DE JUMP JUMPDEST SWAP1 POP SWAP2 SWAP1 POP JUMP JUMPDEST PUSH0 DUP2 SWAP1 POP SWAP2 SWAP1 POP JUMP JUMPDEST PUSH2 0xDF6 DUP4 PUSH2 0xDC3 JUMP JUMPDEST PUSH2 0xE0A PUSH2 0xE02 DUP3 PUSH2 0xDE4 JUMP JUMPDEST DUP5 DUP5 SLOAD PUSH2 0xD69 JUMP JUMPDEST DUP3 SSTORE POP POP POP POP JUMP JUMPDEST PUSH0 SWAP1 JUMP JUMPDEST PUSH2 0xE1E PUSH2 0xE12 JUMP JUMPDEST PUSH2 0xE29 DUP2 DUP5 DUP5 PUSH2 0xDED JUMP JUMPDEST POP POP POP JUMP JUMPDEST JUMPDEST DUP2 DUP2 LT ISZERO PUSH2 0xE4C JUMPI PUSH2 0xE41 PUSH0 DUP3 PUSH2 0xE16 JUMP JUMPDEST PUSH1 0x1 DUP2 ADD SWAP1 POP PUSH2 0xE2F JUMP JUMPDEST POP POP JUMP JUMPDEST PUSH1 0x1F DUP3 GT ISZERO PUSH2 0xE91 JUMPI PUSH2 0xE62 DUP2 PUSH2 0xD3C JUMP JUMPDEST PUSH2 0xE6B DUP5 PUSH2 0xD4E JUMP JUMPDEST DUP2 ADD PUSH1 0x20 DUP6 LT ISZERO PUSH2 0xE7A JUMPI DUP2 SWAP1 POP JUMPDEST PUSH2 0xE8E PUSH2 0xE86 DUP6 PUSH2 0xD4E JUMP JUMPDEST DUP4 ADD DUP3 PUSH2 0xE2E JUMP JUMPDEST POP POP JUMPDEST POP POP POP JUMP JUMPDEST PUSH0 DUP3 DUP3 SHR SWAP1 POP SWAP3 SWAP2 POP POP JUMP JUMPDEST PUSH0 PUSH2 0xEB1 PUSH0 NOT DUP5 PUSH1 0x8 MUL PUSH2 0xE96 JUMP JUMPDEST NOT DUP1 DUP4 AND SWAP2 POP POP SWAP3 SWAP2 POP POP JUMP JUMPDEST PUSH0 PUSH2 0xEC9 DUP4 DUP4 PUSH2 0xEA2 JUMP JUMPDEST SWAP2 POP DUP3 PUSH1 0x2 MUL DUP3 OR SWAP1 POP SWAP3 SWAP2 POP POP JUMP JUMPDEST PUSH2 0xEE2 DUP3 PUSH2 0x954 JUMP JUMPDEST PUSH8 0xFFFFFFFFFFFFFFFF DUP2 GT ISZERO PUSH2 0xEFB JUMPI PUSH2 0xEFA PUSH2 0xD0F JUMP JUMPDEST JUMPDEST PUSH2 0xF05 DUP3 SLOAD PUSH2 0xC7F JUMP JUMPDEST PUSH2 0xF10 DUP3 DUP3 DUP6 PUSH2 0xE50 JUMP JUMPDEST PUSH0 PUSH1 0x20 SWAP1 POP PUSH1 0x1F DUP4 GT PUSH1 0x1 DUP2 EQ PUSH2 0xF41 JUMPI PUSH0 DUP5 ISZERO PUSH2 0xF2F JUMPI DUP3 DUP8 ADD MLOAD SWAP1 POP JUMPDEST PUSH2 0xF39 DUP6 DUP3 PUSH2 0xEBE JUMP JUMPDEST DUP7 SSTORE POP PUSH2 0xFA0 JUMP JUMPDEST PUSH1 0x1F NOT DUP5 AND PUSH2 0xF4F DUP7 PUSH2 0xD3C JUMP JUMPDEST PUSH0 JUMPDEST DUP3 DUP2 LT ISZERO PUSH2 0xF76 JUMPI DUP5 DUP10 ADD MLOAD DUP3 SSTORE PUSH1 0x1 DUP3 ADD SWAP2 POP PUSH1 0x20 DUP6 ADD SWAP5 POP PUSH1 0x20 DUP2 ADD SWAP1 POP PUSH2 0xF51 JUMP JUMPDEST DUP7 DUP4 LT ISZERO PUSH2 0xF93 JUMPI DUP5 DUP10 ADD MLOAD PUSH2 0xF8F PUSH1 0x1F DUP10 AND DUP3 PUSH2 0xEA2 JUMP JUMPDEST DUP4 SSTORE POP JUMPDEST PUSH1 0x1 PUSH1 0x2 DUP9 MUL ADD DUP9 SSTORE POP POP POP JUMPDEST POP POP POP POP POP POP JUMP JUMPDEST PUSH0 DUP3 DUP3 MSTORE PUSH1 0x20 DUP3 ADD SWAP1 POP SWAP3 SWAP2 POP POP JUMP JUMPDEST PUSH32 0x416464726573732068617320616C726561647920766F7465642E000000000000 PUSH0 DUP3 ADD MSTORE POP JUMP JUMPDEST PUSH0 PUSH2 0xFEC PUSH1 0x1A DUP4 PUSH2 0xFA8 JUMP JUMPDEST SWAP2 POP PUSH2 0xFF7 DUP3 PUSH2 0xFB8 JUMP JUMPDEST PUSH1 0x20 DUP3 ADD SWAP1 POP SWAP2 SWAP1 POP JUMP JUMPDEST PUSH0 PUSH1 0x20 DUP3 ADD SWAP1 POP DUP2 DUP2 SUB PUSH0 DUP4 ADD MSTORE PUSH2 0x1019 DUP2 PUSH2 0xFE0 JUMP JUMPDEST SWAP1 POP SWAP2 SWAP1 POP JUMP JUMPDEST PUSH32 0x566F7465206C696D697420726561636865642100000000000000000000000000 PUSH0 DUP3 ADD MSTORE POP JUMP JUMPDEST PUSH0 PUSH2 0x1054 PUSH1 0x13 DUP4 PUSH2 0xFA8 JUMP JUMPDEST SWAP2 POP PUSH2 0x105F DUP3 PUSH2 0x1020 JUMP JUMPDEST PUSH1 0x20 DUP3 ADD SWAP1 POP SWAP2 SWAP1 POP JUMP JUMPDEST PUSH0 PUSH1 0x20 DUP3 ADD SWAP1 POP DUP2 DUP2 SUB PUSH0 DUP4 ADD MSTORE PUSH2 0x1081 DUP2 PUSH2 0x1048 JUMP JUMPDEST SWAP1 POP SWAP2 SWAP1 POP JUMP JUMPDEST PUSH0 PUSH2 0x1092 DUP3 PUSH2 0x9DE JUMP JUMPDEST SWAP2 POP PUSH2 0x109D DUP4 PUSH2 0x9DE JUMP JUMPDEST SWAP3 POP DUP3 DUP3 SUB SWAP1 POP DUP2 DUP2 GT ISZERO PUSH2 0x10B5 JUMPI PUSH2 0x10B4 PUSH2 0xCAF JUMP JUMPDEST JUMPDEST SWAP3 SWAP2 POP POP JUMP INVALID LOG2 PUSH5 0x6970667358 0x22 SLT KECCAK256 DELEGATECALL CODESIZE DUP3 ADDRESS 0xDD 0xAF RETURNDATASIZE 0xE3 RETURN PUSH23 0x307360302553123C2525D86BFD9CB95A44C46870AE0664 PUSH20 0x6F6C634300081800330000000000000000000000 "
				},
				"gasEstimates": {
					"creation": {
						"codeDepositCost": "867400",
						"executionCost": "25166",
						"totalCost": "892566"
					},
					"external": {
						"create(string,uint256)": "infinite",
						"getCurrentProposal()": "infinite",
						"getProposal(uint256)": "infinite",
						"getTotalVote()": "infinite",
						"setOwner(address)": "26882",
						"terminateProposal()": "33174",
						"vote(uint8)": "infinite"
					},
					"internal": {
						"calculateCurrentState(struct ProposalContract.Proposal storage pointer)": "infinite"
					}
				},
				"methodIdentifiers": {
					"create(string,uint256)": "46f81a87",
					"getCurrentProposal()": "41ec6870",
					"getProposal(uint256)": "c7f758a8",
					"getTotalVote()": "c500d240",
					"setOwner(address)": "13af4035",
					"terminateProposal()": "dbddc7aa",
					"vote(uint8)": "b3f98adc"
				}
			},
			"storageLayout": {
				"storage": [
					{
						"astId": 3,
						"contract": "contracts/Final_Contract.sol:ProposalContract",
						"label": "owner",
						"offset": 0,
						"slot": "0",
						"type": "t_address"
					},
					{
						"astId": 5,
						"contract": "contracts/Final_Contract.sol:ProposalContract",
						"label": "counter",
						"offset": 0,
						"slot": "1",
						"type": "t_uint256"
					},
					{
						"astId": 10,
						"contract": "contracts/Final_Contract.sol:ProposalContract",
						"label": "proposal_history",
						"offset": 0,
						"slot": "2",
						"type": "t_mapping(t_uint256,t_struct(Proposal)27_storage)"
					},
					{
						"astId": 14,
						"contract": "contracts/Final_Contract.sol:ProposalContract",
						"label": "hasVoted",
						"offset": 0,
						"slot": "3",
						"type": "t_mapping(t_address,t_bool)"
					}
				],
				"types": {
					"t_address": {
						"encoding": "inplace",
						"label": "address",
						"numberOfBytes": "20"
					},
					"t_bool": {
						"encoding": "inplace",
						"label": "bool",
						"numberOfBytes": "1"
					},
					"t_mapping(t_address,t_bool)": {
						"encoding": "mapping",
						"key": "t_address",
						"label": "mapping(address => bool)",
						"numberOfBytes": "32",
						"value": "t_bool"
					},
					"t_mapping(t_uint256,t_struct(Proposal)27_storage)": {
						"encoding": "mapping",
						"key": "t_uint256",
						"label": "mapping(uint256 => struct ProposalContract.Proposal)",
						"numberOfBytes": "32",
						"value": "t_struct(Proposal)27_storage"
					},
					"t_string_storage": {
						"encoding": "bytes",
						"label": "string",
						"numberOfBytes": "32"
					},
					"t_struct(Proposal)27_storage": {
						"encoding": "inplace",
						"label": "struct ProposalContract.Proposal",
						"members": [
							{
								"astId": 16,
								"contract": "contracts/Final_Contract.sol:ProposalContract",
								"label": "description",
								"offset": 0,
								"slot": "0",
								"type": "t_string_storage"
							},
							{
								"astId": 18,
								"contract": "contracts/Final_Contract.sol:ProposalContract",
								"label": "approve",
								"offset": 0,
								"slot": "1",
								"type": "t_uint256"
							},
							{
								"astId": 20,
								"contract": "contracts/Final_Contract.sol:ProposalContract",
								"label": "reject",
								"offset": 0,
								"slot": "2",
								"type": "t_uint256"
							},
							{
								"astId": 22,
								"contract": "contracts/Final_Contract.sol:ProposalContract",
								"label": "pass",
								"offset": 0,
								"slot": "3",
								"type": "t_uint256"
							},
							{
								"astId": 24,
								"contract": "contracts/Final_Contract.sol:ProposalContract",
								"label": "vote_limit",
								"offset": 0,
								"slot": "4",
								"type": "t_uint256"
							},
							{
								"astId": 26,
								"contract": "contracts/Final_Contract.sol:ProposalContract",
								"label": "is_active",
								"offset": 0,
								"slot": "5",
								"type": "t_bool"
							}
						],
						"numberOfBytes": "192"
					},
					"t_uint256": {
						"encoding": "inplace",
						"label": "uint256",
						"numberOfBytes": "32"
					}
				}
			},
			"userdoc": {
				"kind": "user",
				"methods": {},
				"version": 1
			}
		}
	}
}